{
  "_format": "hh-sol-artifact-1",
  "contractName": "IpNftLicense",
  "sourceName": "contracts/IpNftLicense.sol",
  "abi": [
    {
      "inputs": [],
      "stateMutability": "nonpayable",
      "type": "constructor"
    },
    {
      "anonymous": false,
      "inputs": [
        {
          "indexed": true,
          "internalType": "address",
          "name": "owner",
          "type": "address"
        },
        {
          "indexed": true,
          "internalType": "address",
          "name": "approved",
          "type": "address"
        },
        {
          "indexed": true,
          "internalType": "uint256",
          "name": "tokenId",
          "type": "uint256"
        }
      ],
      "name": "Approval",
      "type": "event"
    },
    {
      "anonymous": false,
      "inputs": [
        {
          "indexed": true,
          "internalType": "address",
          "name": "owner",
          "type": "address"
        },
        {
          "indexed": true,
          "internalType": "address",
          "name": "operator",
          "type": "address"
        },
        {
          "indexed": false,
          "internalType": "bool",
          "name": "approved",
          "type": "bool"
        }
      ],
      "name": "ApprovalForAll",
      "type": "event"
    },
    {
      "anonymous": false,
      "inputs": [
        {
          "indexed": true,
          "internalType": "address",
          "name": "from",
          "type": "address"
        },
        {
          "indexed": true,
          "internalType": "address",
          "name": "to",
          "type": "address"
        },
        {
          "indexed": true,
          "internalType": "uint256",
          "name": "tokenId",
          "type": "uint256"
        }
      ],
      "name": "Transfer",
      "type": "event"
    },
    {
      "anonymous": false,
      "inputs": [
        {
          "indexed": false,
          "internalType": "address",
          "name": "_sender",
          "type": "address"
        },
        {
          "indexed": false,
          "internalType": "uint256",
          "name": "_id",
          "type": "uint256"
        }
      ],
      "name": "nftMinted",
      "type": "event"
    },
    {
      "anonymous": false,
      "inputs": [
        {
          "indexed": false,
          "internalType": "address",
          "name": "_sender",
          "type": "address"
        },
        {
          "indexed": false,
          "internalType": "uint256",
          "name": "_id",
          "type": "uint256"
        }
      ],
      "name": "nftRegistered",
      "type": "event"
    },
    {
      "inputs": [
        {
          "internalType": "address",
          "name": "to",
          "type": "address"
        },
        {
          "internalType": "uint256",
          "name": "tokenId",
          "type": "uint256"
        }
      ],
      "name": "approve",
      "outputs": [],
      "stateMutability": "nonpayable",
      "type": "function"
    },
    {
      "inputs": [
        {
          "internalType": "address",
          "name": "owner",
          "type": "address"
        }
      ],
      "name": "balanceOf",
      "outputs": [
        {
          "internalType": "uint256",
          "name": "",
          "type": "uint256"
        }
      ],
      "stateMutability": "view",
      "type": "function"
    },
    {
      "inputs": [
        {
          "internalType": "uint256",
          "name": "",
          "type": "uint256"
        }
      ],
      "name": "depositAmountMap",
      "outputs": [
        {
          "internalType": "uint256",
          "name": "",
          "type": "uint256"
        }
      ],
      "stateMutability": "view",
      "type": "function"
    },
    {
      "inputs": [],
      "name": "getAllMintableIps",
      "outputs": [
        {
          "components": [
            {
              "internalType": "string",
              "name": "name",
              "type": "string"
            },
            {
              "internalType": "string",
              "name": "imageURI",
              "type": "string"
            },
            {
              "internalType": "uint256",
              "name": "startDate",
              "type": "uint256"
            },
            {
              "internalType": "uint256",
              "name": "expirationDays",
              "type": "uint256"
            },
            {
              "internalType": "uint256",
              "name": "price",
              "type": "uint256"
            },
            {
              "internalType": "uint256",
              "name": "depositPrice",
              "type": "uint256"
            },
            {
              "internalType": "address",
              "name": "owner",
              "type": "address"
            }
          ],
          "internalType": "struct IpNftLicense.TicketAttributes[]",
          "name": "",
          "type": "tuple[]"
        }
      ],
      "stateMutability": "view",
      "type": "function"
    },
    {
      "inputs": [
        {
          "internalType": "uint256",
          "name": "tokenId",
          "type": "uint256"
        }
      ],
      "name": "getApproved",
      "outputs": [
        {
          "internalType": "address",
          "name": "",
          "type": "address"
        }
      ],
      "stateMutability": "view",
      "type": "function"
    },
    {
      "inputs": [
        {
          "internalType": "uint256",
          "name": "nftId",
          "type": "uint256"
        }
      ],
      "name": "getMintCount",
      "outputs": [
        {
          "internalType": "uint256",
          "name": "",
          "type": "uint256"
        }
      ],
      "stateMutability": "view",
      "type": "function"
    },
    {
      "inputs": [
        {
          "internalType": "address",
          "name": "owner",
          "type": "address"
        },
        {
          "internalType": "address",
          "name": "operator",
          "type": "address"
        }
      ],
      "name": "isApprovedForAll",
      "outputs": [
        {
          "internalType": "bool",
          "name": "",
          "type": "bool"
        }
      ],
      "stateMutability": "view",
      "type": "function"
    },
    {
      "inputs": [
        {
          "internalType": "uint256",
          "name": "",
          "type": "uint256"
        }
      ],
      "name": "isDepositLockedMap",
      "outputs": [
        {
          "internalType": "bool",
          "name": "",
          "type": "bool"
        }
      ],
      "stateMutability": "view",
      "type": "function"
    },
    {
      "inputs": [
        {
          "internalType": "uint256",
          "name": "",
          "type": "uint256"
        }
      ],
      "name": "maxMint",
      "outputs": [
        {
          "internalType": "uint256",
          "name": "",
          "type": "uint256"
        }
      ],
      "stateMutability": "view",
      "type": "function"
    },
    {
      "inputs": [
        {
          "internalType": "uint256",
          "name": "_mintNftId",
          "type": "uint256"
        },
        {
          "internalType": "uint256",
          "name": "startDate",
          "type": "uint256"
        }
      ],
      "name": "mintNft",
      "outputs": [],
      "stateMutability": "payable",
      "type": "function"
    },
    {
      "inputs": [],
      "name": "name",
      "outputs": [
        {
          "internalType": "string",
          "name": "",
          "type": "string"
        }
      ],
      "stateMutability": "view",
      "type": "function"
    },
    {
      "inputs": [
        {
          "internalType": "uint256",
          "name": "",
          "type": "uint256"
        }
      ],
      "name": "nftHolderAttributes",
      "outputs": [
        {
          "internalType": "string",
          "name": "name",
          "type": "string"
        },
        {
          "internalType": "string",
          "name": "imageURI",
          "type": "string"
        },
        {
          "internalType": "uint256",
          "name": "startDate",
          "type": "uint256"
        },
        {
          "internalType": "uint256",
          "name": "expirationDays",
          "type": "uint256"
        },
        {
          "internalType": "uint256",
          "name": "price",
          "type": "uint256"
        },
        {
          "internalType": "uint256",
          "name": "depositPrice",
          "type": "uint256"
        },
        {
          "internalType": "address",
          "name": "owner",
          "type": "address"
        }
      ],
      "stateMutability": "view",
      "type": "function"
    },
    {
      "inputs": [
        {
          "internalType": "uint256",
          "name": "tokenId",
          "type": "uint256"
        }
      ],
      "name": "ownerOf",
      "outputs": [
        {
          "internalType": "address",
          "name": "",
          "type": "address"
        }
      ],
      "stateMutability": "view",
      "type": "function"
    },
    {
      "inputs": [
        {
          "internalType": "string",
          "name": "_name",
          "type": "string"
        },
        {
          "internalType": "string",
          "name": "_imageURI",
          "type": "string"
        },
        {
          "internalType": "uint256",
          "name": "_expirationDays",
          "type": "uint256"
        },
        {
          "internalType": "uint256",
          "name": "_price",
          "type": "uint256"
        },
        {
          "internalType": "uint256",
          "name": "_depositPrice",
          "type": "uint256"
        },
        {
          "internalType": "uint256",
          "name": "_maxMint",
          "type": "uint256"
        }
      ],
      "name": "registerIpLicenseNft",
      "outputs": [],
      "stateMutability": "nonpayable",
      "type": "function"
    },
    {
      "inputs": [
        {
          "internalType": "address",
          "name": "",
          "type": "address"
        }
      ],
      "name": "revenueBalanceMap",
      "outputs": [
        {
          "internalType": "uint256",
          "name": "",
          "type": "uint256"
        }
      ],
      "stateMutability": "view",
      "type": "function"
    },
    {
      "inputs": [
        {
          "internalType": "address",
          "name": "from",
          "type": "address"
        },
        {
          "internalType": "address",
          "name": "to",
          "type": "address"
        },
        {
          "internalType": "uint256",
          "name": "tokenId",
          "type": "uint256"
        }
      ],
      "name": "safeTransferFrom",
      "outputs": [],
      "stateMutability": "nonpayable",
      "type": "function"
    },
    {
      "inputs": [
        {
          "internalType": "address",
          "name": "from",
          "type": "address"
        },
        {
          "internalType": "address",
          "name": "to",
          "type": "address"
        },
        {
          "internalType": "uint256",
          "name": "tokenId",
          "type": "uint256"
        },
        {
          "internalType": "bytes",
          "name": "data",
          "type": "bytes"
        }
      ],
      "name": "safeTransferFrom",
      "outputs": [],
      "stateMutability": "nonpayable",
      "type": "function"
    },
    {
      "inputs": [
        {
          "internalType": "address",
          "name": "operator",
          "type": "address"
        },
        {
          "internalType": "bool",
          "name": "approved",
          "type": "bool"
        }
      ],
      "name": "setApprovalForAll",
      "outputs": [],
      "stateMutability": "nonpayable",
      "type": "function"
    },
    {
      "inputs": [
        {
          "internalType": "bytes4",
          "name": "interfaceId",
          "type": "bytes4"
        }
      ],
      "name": "supportsInterface",
      "outputs": [
        {
          "internalType": "bool",
          "name": "",
          "type": "bool"
        }
      ],
      "stateMutability": "view",
      "type": "function"
    },
    {
      "inputs": [],
      "name": "symbol",
      "outputs": [
        {
          "internalType": "string",
          "name": "",
          "type": "string"
        }
      ],
      "stateMutability": "view",
      "type": "function"
    },
    {
      "inputs": [
        {
          "internalType": "uint256",
          "name": "_tokenId",
          "type": "uint256"
        }
      ],
      "name": "tokenURI",
      "outputs": [
        {
          "internalType": "string",
          "name": "",
          "type": "string"
        }
      ],
      "stateMutability": "view",
      "type": "function"
    },
    {
      "inputs": [
        {
          "internalType": "address",
          "name": "from",
          "type": "address"
        },
        {
          "internalType": "address",
          "name": "to",
          "type": "address"
        },
        {
          "internalType": "uint256",
          "name": "tokenId",
          "type": "uint256"
        }
      ],
      "name": "transferFrom",
      "outputs": [],
      "stateMutability": "nonpayable",
      "type": "function"
    },
    {
      "inputs": [
        {
          "internalType": "uint256",
          "name": "_tokenId",
          "type": "uint256"
        }
      ],
      "name": "unLockDeposit",
      "outputs": [],
      "stateMutability": "nonpayable",
      "type": "function"
    },
    {
      "inputs": [
        {
          "internalType": "uint256",
          "name": "_tokenId",
          "type": "uint256"
        }
      ],
      "name": "withdrawDeposit",
      "outputs": [],
      "stateMutability": "nonpayable",
      "type": "function"
    },
    {
      "inputs": [],
      "name": "withdrawRevenue",
      "outputs": [],
      "stateMutability": "nonpayable",
      "type": "function"
    }
  ],
  "bytecode": "0x60806040523480156200001157600080fd5b506040518060400160405280600e81526020017f4950204c6963656e7365204e46540000000000000000000000000000000000008152506040518060400160405280600581526020017f49504c494300000000000000000000000000000000000000000000000000000081525081600090816200008f919062000324565b508060019081620000a1919062000324565b5050506200040b565b600081519050919050565b7f4e487b7100000000000000000000000000000000000000000000000000000000600052604160045260246000fd5b7f4e487b7100000000000000000000000000000000000000000000000000000000600052602260045260246000fd5b600060028204905060018216806200012c57607f821691505b602082108103620001425762000141620000e4565b5b50919050565b60008190508160005260206000209050919050565b60006020601f8301049050919050565b600082821b905092915050565b600060088302620001ac7fffffffffffffffffffffffffffffffffffffffffffffffffffffffffffffffff826200016d565b620001b886836200016d565b95508019841693508086168417925050509392505050565b6000819050919050565b6000819050919050565b600062000205620001ff620001f984620001d0565b620001da565b620001d0565b9050919050565b6000819050919050565b6200022183620001e4565b6200023962000230826200020c565b8484546200017a565b825550505050565b600090565b6200025062000241565b6200025d81848462000216565b505050565b5b8181101562000285576200027960008262000246565b60018101905062000263565b5050565b601f821115620002d4576200029e8162000148565b620002a9846200015d565b81016020851015620002b9578190505b620002d1620002c8856200015d565b83018262000262565b50505b505050565b600082821c905092915050565b6000620002f960001984600802620002d9565b1980831691505092915050565b6000620003148383620002e6565b9150826002028217905092915050565b6200032f82620000aa565b67ffffffffffffffff8111156200034b576200034a620000b5565b5b62000357825462000113565b6200036482828562000289565b600060209050601f8311600181146200039c576000841562000387578287015190505b62000393858262000306565b86555062000403565b601f198416620003ac8662000148565b60005b82811015620003d657848901518255600182019150602085019450602081019050620003af565b86831015620003f65784890151620003f2601f891682620002e6565b8355505b6001600288020188555050505b505050505050565b614651806200041b6000396000f3fe6080604052600436106101665760003560e01c806362a9d6a6116100d1578063a22cb4651161008a578063d4196ca211610064578063d4196ca214610576578063db09a3f5146105b3578063e985e9c5146105f0578063f53a261d1461062d57610166565b8063a22cb465146104e7578063b88d4fde14610510578063c87b56dd1461053957610166565b806362a9d6a6146103975780636352211e146103d457806370a08231146104115780637a4ce7f01461044e57806395d89b411461047957806398da4c95146104a457610166565b806333289a461161012357806333289a461461029f5780633adb1cb4146102c85780633d9e67ec146102f157806342842e0e1461032e5780634f573cb21461035757806360c04e711461036e57610166565b806301ffc9a71461016b57806306ab6fda146101a857806306fdde03146101e5578063081812fc14610210578063095ea7b31461024d57806323b872dd14610276575b600080fd5b34801561017757600080fd5b50610192600480360381019061018d9190612c3a565b610649565b60405161019f9190612c82565b60405180910390f35b3480156101b457600080fd5b506101cf60048036038101906101ca9190612cd3565b61072b565b6040516101dc9190612c82565b60405180910390f35b3480156101f157600080fd5b506101fa61074b565b6040516102079190612d90565b60405180910390f35b34801561021c57600080fd5b5061023760048036038101906102329190612cd3565b6107dd565b6040516102449190612df3565b60405180910390f35b34801561025957600080fd5b50610274600480360381019061026f9190612e3a565b610823565b005b34801561028257600080fd5b5061029d60048036038101906102989190612e7a565b61093a565b005b3480156102ab57600080fd5b506102c660048036038101906102c19190612cd3565b61099a565b005b3480156102d457600080fd5b506102ef60048036038101906102ea9190612cd3565b610af3565b005b3480156102fd57600080fd5b5061031860048036038101906103139190612cd3565b610c2c565b6040516103259190612edc565b60405180910390f35b34801561033a57600080fd5b5061035560048036038101906103509190612e7a565b610c44565b005b34801561036357600080fd5b5061036c610c64565b005b34801561037a57600080fd5b506103956004803603810190610390919061302c565b610d37565b005b3480156103a357600080fd5b506103be60048036038101906103b99190612cd3565b610ebb565b6040516103cb9190612edc565b60405180910390f35b3480156103e057600080fd5b506103fb60048036038101906103f69190612cd3565b610ed3565b6040516104089190612df3565b60405180910390f35b34801561041d57600080fd5b50610438600480360381019061043391906130f1565b610f59565b6040516104459190612edc565b60405180910390f35b34801561045a57600080fd5b50610463611010565b60405161047091906132eb565b60405180910390f35b34801561048557600080fd5b5061048e611211565b60405161049b9190612d90565b60405180910390f35b3480156104b057600080fd5b506104cb60048036038101906104c69190612cd3565b6112a3565b6040516104de979695949392919061330d565b60405180910390f35b3480156104f357600080fd5b5061050e600480360381019061050991906133b6565b611415565b005b34801561051c57600080fd5b5061053760048036038101906105329190613497565b61142b565b005b34801561054557600080fd5b50610560600480360381019061055b9190612cd3565b61148d565b60405161056d9190612d90565b60405180910390f35b34801561058257600080fd5b5061059d600480360381019061059891906130f1565b6116ef565b6040516105aa9190612edc565b60405180910390f35b3480156105bf57600080fd5b506105da60048036038101906105d59190612cd3565b611707565b6040516105e79190612edc565b60405180910390f35b3480156105fc57600080fd5b506106176004803603810190610612919061351a565b61172b565b6040516106249190612c82565b60405180910390f35b6106476004803603810190610642919061355a565b6117bf565b005b60007f80ac58cd000000000000000000000000000000000000000000000000000000007bffffffffffffffffffffffffffffffffffffffffffffffffffffffff1916827bffffffffffffffffffffffffffffffffffffffffffffffffffffffff1916148061071457507f5b5e139f000000000000000000000000000000000000000000000000000000007bffffffffffffffffffffffffffffffffffffffffffffffffffffffff1916827bffffffffffffffffffffffffffffffffffffffffffffffffffffffff1916145b80610724575061072382611c90565b5b9050919050565b60096020528060005260406000206000915054906101000a900460ff1681565b60606000805461075a906135c9565b80601f0160208091040260200160405190810160405280929190818152602001828054610786906135c9565b80156107d35780601f106107a8576101008083540402835291602001916107d3565b820191906000526020600020905b8154815290600101906020018083116107b657829003601f168201915b5050505050905090565b60006107e882611cfa565b6004600083815260200190815260200160002060009054906101000a900473ffffffffffffffffffffffffffffffffffffffff169050919050565b600061082e82610ed3565b90508073ffffffffffffffffffffffffffffffffffffffff168373ffffffffffffffffffffffffffffffffffffffff160361089e576040517f08c379a00000000000000000000000000000000000000000000000000000000081526004016108959061366c565b60405180910390fd5b8073ffffffffffffffffffffffffffffffffffffffff166108bd611d45565b73ffffffffffffffffffffffffffffffffffffffff1614806108ec57506108eb816108e6611d45565b61172b565b5b61092b576040517f08c379a0000000000000000000000000000000000000000000000000000000008152600401610922906136fe565b60405180910390fd5b6109358383611d4d565b505050565b61094b610945611d45565b82611e06565b61098a576040517f08c379a000000000000000000000000000000000000000000000000000000000815260040161098190613790565b60405180910390fd5b610995838383611e9b565b505050565b600015156009600083815260200190815260200160002060009054906101000a900460ff16151514610a01576040517f08c379a00000000000000000000000000000000000000000000000000000000081526004016109f8906137fc565b60405180910390fd5b610a0a81612194565b73ffffffffffffffffffffffffffffffffffffffff163373ffffffffffffffffffffffffffffffffffffffff1614610a77576040517f08c379a0000000000000000000000000000000000000000000000000000000008152600401610a6e90613868565b60405180910390fd5b600060086000838152602001908152602001600020549050600060086000848152602001908152602001600020819055503373ffffffffffffffffffffffffffffffffffffffff166108fc829081150290604051600060405180830381858888f19350505050158015610aee573d6000803e3d6000fd5b505050565b6009600082815260200190815260200160002060009054906101000a900460ff16610b53576040517f08c379a0000000000000000000000000000000000000000000000000000000008152600401610b4a906138d4565b60405180910390fd5b60006007600083815260200190815260200160002060060160009054906101000a900473ffffffffffffffffffffffffffffffffffffffff1690508073ffffffffffffffffffffffffffffffffffffffff163373ffffffffffffffffffffffffffffffffffffffff1614610bfc576040517f08c379a0000000000000000000000000000000000000000000000000000000008152600401610bf390613868565b60405180910390fd5b60006009600084815260200190815260200160002060006101000a81548160ff0219169083151502179055505050565b600b6020528060005260406000206000915090505481565b610c5f8383836040518060200160405280600081525061142b565b505050565b6000600a60003373ffffffffffffffffffffffffffffffffffffffff1673ffffffffffffffffffffffffffffffffffffffff1681526020019081526020016000205490506000600a60003373ffffffffffffffffffffffffffffffffffffffff1673ffffffffffffffffffffffffffffffffffffffff168152602001908152602001600020819055503373ffffffffffffffffffffffffffffffffffffffff166108fc829081150290604051600060405180830381858888f19350505050158015610d33573d6000803e3d6000fd5b5050565b6000610d43600e6121d1565b9050600d6040518060e00160405280898152602001888152602001600081526020018781526020018681526020018581526020013373ffffffffffffffffffffffffffffffffffffffff1681525090806001815401808255809150506001900390600052602060002090600702016000909190919091506000820151816000019081610dcf9190613aa0565b506020820151816001019081610de59190613aa0565b5060408201518160020155606082015181600301556080820151816004015560a0820151816005015560c08201518160060160006101000a81548173ffffffffffffffffffffffffffffffffffffffff021916908373ffffffffffffffffffffffffffffffffffffffff160217905550505081600b600083815260200190815260200160002081905550610e79600e6121df565b7f8cf1e74e6510e3caa6ffcc4bd56494fa9815499f0f802097863e4149fa6981c93382604051610eaa929190613b72565b60405180910390a150505050505050565b60086020528060005260406000206000915090505481565b600080610edf83612194565b9050600073ffffffffffffffffffffffffffffffffffffffff168173ffffffffffffffffffffffffffffffffffffffff1603610f50576040517f08c379a0000000000000000000000000000000000000000000000000000000008152600401610f4790613be7565b60405180910390fd5b80915050919050565b60008073ffffffffffffffffffffffffffffffffffffffff168273ffffffffffffffffffffffffffffffffffffffff1603610fc9576040517f08c379a0000000000000000000000000000000000000000000000000000000008152600401610fc090613c79565b60405180910390fd5b600360008373ffffffffffffffffffffffffffffffffffffffff1673ffffffffffffffffffffffffffffffffffffffff168152602001908152602001600020549050919050565b6060600d805480602002602001604051908101604052809291908181526020016000905b8282101561120857838290600052602060002090600702016040518060e0016040529081600082018054611067906135c9565b80601f0160208091040260200160405190810160405280929190818152602001828054611093906135c9565b80156110e05780601f106110b5576101008083540402835291602001916110e0565b820191906000526020600020905b8154815290600101906020018083116110c357829003601f168201915b505050505081526020016001820180546110f9906135c9565b80601f0160208091040260200160405190810160405280929190818152602001828054611125906135c9565b80156111725780601f1061114757610100808354040283529160200191611172565b820191906000526020600020905b81548152906001019060200180831161115557829003601f168201915b50505050508152602001600282015481526020016003820154815260200160048201548152602001600582015481526020016006820160009054906101000a900473ffffffffffffffffffffffffffffffffffffffff1673ffffffffffffffffffffffffffffffffffffffff1673ffffffffffffffffffffffffffffffffffffffff168152505081526020019060010190611034565b50505050905090565b606060018054611220906135c9565b80601f016020809104026020016040519081016040528092919081815260200182805461124c906135c9565b80156112995780601f1061126e57610100808354040283529160200191611299565b820191906000526020600020905b81548152906001019060200180831161127c57829003601f168201915b5050505050905090565b60076020528060005260406000206000915090508060000180546112c6906135c9565b80601f01602080910402602001604051908101604052809291908181526020018280546112f2906135c9565b801561133f5780601f106113145761010080835404028352916020019161133f565b820191906000526020600020905b81548152906001019060200180831161132257829003601f168201915b505050505090806001018054611354906135c9565b80601f0160208091040260200160405190810160405280929190818152602001828054611380906135c9565b80156113cd5780601f106113a2576101008083540402835291602001916113cd565b820191906000526020600020905b8154815290600101906020018083116113b057829003601f168201915b5050505050908060020154908060030154908060040154908060050154908060060160009054906101000a900473ffffffffffffffffffffffffffffffffffffffff16905087565b611427611420611d45565b83836121f5565b5050565b61143c611436611d45565b83611e06565b61147b576040517f08c379a000000000000000000000000000000000000000000000000000000000815260040161147290613790565b60405180910390fd5b61148784848484612361565b50505050565b60606000600760008481526020019081526020016000206040518060e00160405290816000820180546114bf906135c9565b80601f01602080910402602001604051908101604052809291908181526020018280546114eb906135c9565b80156115385780601f1061150d57610100808354040283529160200191611538565b820191906000526020600020905b81548152906001019060200180831161151b57829003601f168201915b50505050508152602001600182018054611551906135c9565b80601f016020809104026020016040519081016040528092919081815260200182805461157d906135c9565b80156115ca5780601f1061159f576101008083540402835291602001916115ca565b820191906000526020600020905b8154815290600101906020018083116115ad57829003601f168201915b50505050508152602001600282015481526020016003820154815260200160048201548152602001600582015481526020016006820160009054906101000a900473ffffffffffffffffffffffffffffffffffffffff1673ffffffffffffffffffffffffffffffffffffffff1673ffffffffffffffffffffffffffffffffffffffff16815250509050600061166282604001516123bd565b905060006116828360600151846040015161167d9190613cc8565b6123bd565b905060006116bc8460000151856020015185856040516020016116a89493929190613f72565b60405160208183030381529060405261248b565b90506000816040516020016116d19190614033565b60405160208183030381529060405290508095505050505050919050565b600a6020528060005260406000206000915090505481565b6000611724600c60008481526020019081526020016000206121d1565b9050919050565b6000600560008473ffffffffffffffffffffffffffffffffffffffff1673ffffffffffffffffffffffffffffffffffffffff16815260200190815260200160002060008373ffffffffffffffffffffffffffffffffffffffff1673ffffffffffffffffffffffffffffffffffffffff16815260200190815260200160002060009054906101000a900460ff16905092915050565b600b6000838152602001908152602001600020546117ee600c60008581526020019081526020016000206121d1565b1061182e576040517f08c379a0000000000000000000000000000000000000000000000000000000008152600401611825906140a1565b60405180910390fd5b6000600d8381548110611844576118436140c1565b5b90600052602060002090600702016040518060e001604052908160008201805461186d906135c9565b80601f0160208091040260200160405190810160405280929190818152602001828054611899906135c9565b80156118e65780601f106118bb576101008083540402835291602001916118e6565b820191906000526020600020905b8154815290600101906020018083116118c957829003601f168201915b505050505081526020016001820180546118ff906135c9565b80601f016020809104026020016040519081016040528092919081815260200182805461192b906135c9565b80156119785780601f1061194d57610100808354040283529160200191611978565b820191906000526020600020905b81548152906001019060200180831161195b57829003601f168201915b50505050508152602001600282015481526020016003820154815260200160048201548152602001600582015481526020016006820160009054906101000a900473ffffffffffffffffffffffffffffffffffffffff1673ffffffffffffffffffffffffffffffffffffffff1673ffffffffffffffffffffffffffffffffffffffff1681525050905060008160a001518260800151611a179190613cc8565b9050803414611a5b576040517f08c379a0000000000000000000000000000000000000000000000000000000008152600401611a529061413c565b60405180910390fd5b6000611a6760066121d1565b905060016009600083815260200190815260200160002060006101000a81548160ff0219169083151502179055508260a0015160086000838152602001908152602001600020819055508260800151600a60008560c0015173ffffffffffffffffffffffffffffffffffffffff1673ffffffffffffffffffffffffffffffffffffffff1681526020019081526020016000206000828254611b089190613cc8565b92505081905550611b1933826125ee565b6040518060e00160405280846000015181526020018460200151815260200185815260200184606001518152602001846080015181526020018460a0015181526020018460c0015173ffffffffffffffffffffffffffffffffffffffff16815250600760008381526020019081526020016000206000820151816000019081611ba29190613aa0565b506020820151816001019081611bb89190613aa0565b5060408201518160020155606082015181600301556080820151816004015560a0820151816005015560c08201518160060160006101000a81548173ffffffffffffffffffffffffffffffffffffffff021916908373ffffffffffffffffffffffffffffffffffffffff160217905550905050611c46600c60008781526020019081526020016000206121df565b611c5060066121df565b7fbbedd439cfe8aa51324de58375e6ffccc4ac766d72b9aaeb8a0e4960923ea4163382604051611c81929190613b72565b60405180910390a15050505050565b60007f01ffc9a7000000000000000000000000000000000000000000000000000000007bffffffffffffffffffffffffffffffffffffffffffffffffffffffff1916827bffffffffffffffffffffffffffffffffffffffffffffffffffffffff1916149050919050565b611d038161260c565b611d42576040517f08c379a0000000000000000000000000000000000000000000000000000000008152600401611d3990613be7565b60405180910390fd5b50565b600033905090565b816004600083815260200190815260200160002060006101000a81548173ffffffffffffffffffffffffffffffffffffffff021916908373ffffffffffffffffffffffffffffffffffffffff160217905550808273ffffffffffffffffffffffffffffffffffffffff16611dc083610ed3565b73ffffffffffffffffffffffffffffffffffffffff167f8c5be1e5ebec7d5bd14f71427d1e84f3dd0314c0f7b2291e5b200ac8c7c3b92560405160405180910390a45050565b600080611e1283610ed3565b90508073ffffffffffffffffffffffffffffffffffffffff168473ffffffffffffffffffffffffffffffffffffffff161480611e545750611e53818561172b565b5b80611e9257508373ffffffffffffffffffffffffffffffffffffffff16611e7a846107dd565b73ffffffffffffffffffffffffffffffffffffffff16145b91505092915050565b8273ffffffffffffffffffffffffffffffffffffffff16611ebb82610ed3565b73ffffffffffffffffffffffffffffffffffffffff1614611f11576040517f08c379a0000000000000000000000000000000000000000000000000000000008152600401611f08906141ce565b60405180910390fd5b600073ffffffffffffffffffffffffffffffffffffffff168273ffffffffffffffffffffffffffffffffffffffff1603611f80576040517f08c379a0000000000000000000000000000000000000000000000000000000008152600401611f7790614260565b60405180910390fd5b611f8d838383600161264d565b8273ffffffffffffffffffffffffffffffffffffffff16611fad82610ed3565b73ffffffffffffffffffffffffffffffffffffffff1614612003576040517f08c379a0000000000000000000000000000000000000000000000000000000008152600401611ffa906141ce565b60405180910390fd5b6004600082815260200190815260200160002060006101000a81549073ffffffffffffffffffffffffffffffffffffffff02191690556001600360008573ffffffffffffffffffffffffffffffffffffffff1673ffffffffffffffffffffffffffffffffffffffff168152602001908152602001600020600082825403925050819055506001600360008473ffffffffffffffffffffffffffffffffffffffff1673ffffffffffffffffffffffffffffffffffffffff16815260200190815260200160002060008282540192505081905550816002600083815260200190815260200160002060006101000a81548173ffffffffffffffffffffffffffffffffffffffff021916908373ffffffffffffffffffffffffffffffffffffffff160217905550808273ffffffffffffffffffffffffffffffffffffffff168473ffffffffffffffffffffffffffffffffffffffff167fddf252ad1be2c89b69c2b068fc378daa952ba7f163c4a11628f55a4df523b3ef60405160405180910390a461218f8383836001612653565b505050565b60006002600083815260200190815260200160002060009054906101000a900473ffffffffffffffffffffffffffffffffffffffff169050919050565b600081600001549050919050565b6001816000016000828254019250508190555050565b8173ffffffffffffffffffffffffffffffffffffffff168373ffffffffffffffffffffffffffffffffffffffff1603612263576040517f08c379a000000000000000000000000000000000000000000000000000000000815260040161225a906142cc565b60405180910390fd5b80600560008573ffffffffffffffffffffffffffffffffffffffff1673ffffffffffffffffffffffffffffffffffffffff16815260200190815260200160002060008473ffffffffffffffffffffffffffffffffffffffff1673ffffffffffffffffffffffffffffffffffffffff16815260200190815260200160002060006101000a81548160ff0219169083151502179055508173ffffffffffffffffffffffffffffffffffffffff168373ffffffffffffffffffffffffffffffffffffffff167f17307eab39ab6107e8899845ad3d59bd9653f200f220920489ca2b5937696c31836040516123549190612c82565b60405180910390a3505050565b61236c848484611e9b565b61237884848484612659565b6123b7576040517f08c379a00000000000000000000000000000000000000000000000000000000081526004016123ae9061435e565b60405180910390fd5b50505050565b6060600060016123cc846127e0565b01905060008167ffffffffffffffff8111156123eb576123ea612f01565b5b6040519080825280601f01601f19166020018201604052801561241d5781602001600182028036833780820191505090505b509050600082602001820190505b600115612480578080600190039150507f3031323334353637383961626364656600000000000000000000000000000000600a86061a8153600a85816124745761247361437e565b5b0494506000850361242b575b819350505050919050565b606060008251036124ad576040518060200160405280600081525090506125e9565b60006040518060600160405280604081526020016145dc60409139905060006003600285516124dc9190613cc8565b6124e691906143ad565b60046124f291906143de565b67ffffffffffffffff81111561250b5761250a612f01565b5b6040519080825280601f01601f19166020018201604052801561253d5781602001600182028036833780820191505090505b509050600182016020820185865187015b808210156125a9576003820191508151603f8160121c168501518453600184019350603f81600c1c168501518453600184019350603f8160061c168501518453600184019350603f811685015184536001840193505061254e565b50506003865106600181146125c557600281146125d8576125e0565b603d6001830353603d60028303536125e0565b603d60018303535b50505080925050505b919050565b612608828260405180602001604052806000815250612933565b5050565b60008073ffffffffffffffffffffffffffffffffffffffff1661262e83612194565b73ffffffffffffffffffffffffffffffffffffffff1614159050919050565b50505050565b50505050565b600061267a8473ffffffffffffffffffffffffffffffffffffffff1661298e565b156127d3578373ffffffffffffffffffffffffffffffffffffffff1663150b7a026126a3611d45565b8786866040518563ffffffff1660e01b81526004016126c59493929190614475565b6020604051808303816000875af192505050801561270157506040513d601f19601f820116820180604052508101906126fe91906144d6565b60015b612783573d8060008114612731576040519150601f19603f3d011682016040523d82523d6000602084013e612736565b606091505b50600081510361277b576040517f08c379a00000000000000000000000000000000000000000000000000000000081526004016127729061435e565b60405180910390fd5b805181602001fd5b63150b7a0260e01b7bffffffffffffffffffffffffffffffffffffffffffffffffffffffff1916817bffffffffffffffffffffffffffffffffffffffffffffffffffffffff1916149150506127d8565b600190505b949350505050565b600080600090507a184f03e93ff9f4daa797ed6e38ed64bf6a1f010000000000000000831061283e577a184f03e93ff9f4daa797ed6e38ed64bf6a1f01000000000000000083816128345761283361437e565b5b0492506040810190505b6d04ee2d6d415b85acef8100000000831061287b576d04ee2d6d415b85acef810000000083816128715761287061437e565b5b0492506020810190505b662386f26fc1000083106128aa57662386f26fc1000083816128a05761289f61437e565b5b0492506010810190505b6305f5e10083106128d3576305f5e10083816128c9576128c861437e565b5b0492506008810190505b61271083106128f85761271083816128ee576128ed61437e565b5b0492506004810190505b6064831061291b57606483816129115761291061437e565b5b0492506002810190505b600a831061292a576001810190505b80915050919050565b61293d83836129b1565b61294a6000848484612659565b612989576040517f08c379a00000000000000000000000000000000000000000000000000000000081526004016129809061435e565b60405180910390fd5b505050565b6000808273ffffffffffffffffffffffffffffffffffffffff163b119050919050565b600073ffffffffffffffffffffffffffffffffffffffff168273ffffffffffffffffffffffffffffffffffffffff1603612a20576040517f08c379a0000000000000000000000000000000000000000000000000000000008152600401612a179061454f565b60405180910390fd5b612a298161260c565b15612a69576040517f08c379a0000000000000000000000000000000000000000000000000000000008152600401612a60906145bb565b60405180910390fd5b612a7760008383600161264d565b612a808161260c565b15612ac0576040517f08c379a0000000000000000000000000000000000000000000000000000000008152600401612ab7906145bb565b60405180910390fd5b6001600360008473ffffffffffffffffffffffffffffffffffffffff1673ffffffffffffffffffffffffffffffffffffffff16815260200190815260200160002060008282540192505081905550816002600083815260200190815260200160002060006101000a81548173ffffffffffffffffffffffffffffffffffffffff021916908373ffffffffffffffffffffffffffffffffffffffff160217905550808273ffffffffffffffffffffffffffffffffffffffff16600073ffffffffffffffffffffffffffffffffffffffff167fddf252ad1be2c89b69c2b068fc378daa952ba7f163c4a11628f55a4df523b3ef60405160405180910390a4612bca600083836001612653565b5050565b6000604051905090565b600080fd5b600080fd5b60007fffffffff0000000000000000000000000000000000000000000000000000000082169050919050565b612c1781612be2565b8114612c2257600080fd5b50565b600081359050612c3481612c0e565b92915050565b600060208284031215612c5057612c4f612bd8565b5b6000612c5e84828501612c25565b91505092915050565b60008115159050919050565b612c7c81612c67565b82525050565b6000602082019050612c976000830184612c73565b92915050565b6000819050919050565b612cb081612c9d565b8114612cbb57600080fd5b50565b600081359050612ccd81612ca7565b92915050565b600060208284031215612ce957612ce8612bd8565b5b6000612cf784828501612cbe565b91505092915050565b600081519050919050565b600082825260208201905092915050565b60005b83811015612d3a578082015181840152602081019050612d1f565b60008484015250505050565b6000601f19601f8301169050919050565b6000612d6282612d00565b612d6c8185612d0b565b9350612d7c818560208601612d1c565b612d8581612d46565b840191505092915050565b60006020820190508181036000830152612daa8184612d57565b905092915050565b600073ffffffffffffffffffffffffffffffffffffffff82169050919050565b6000612ddd82612db2565b9050919050565b612ded81612dd2565b82525050565b6000602082019050612e086000830184612de4565b92915050565b612e1781612dd2565b8114612e2257600080fd5b50565b600081359050612e3481612e0e565b92915050565b60008060408385031215612e5157612e50612bd8565b5b6000612e5f85828601612e25565b9250506020612e7085828601612cbe565b9150509250929050565b600080600060608486031215612e9357612e92612bd8565b5b6000612ea186828701612e25565b9350506020612eb286828701612e25565b9250506040612ec386828701612cbe565b9150509250925092565b612ed681612c9d565b82525050565b6000602082019050612ef16000830184612ecd565b92915050565b600080fd5b600080fd5b7f4e487b7100000000000000000000000000000000000000000000000000000000600052604160045260246000fd5b612f3982612d46565b810181811067ffffffffffffffff82111715612f5857612f57612f01565b5b80604052505050565b6000612f6b612bce565b9050612f778282612f30565b919050565b600067ffffffffffffffff821115612f9757612f96612f01565b5b612fa082612d46565b9050602081019050919050565b82818337600083830152505050565b6000612fcf612fca84612f7c565b612f61565b905082815260208101848484011115612feb57612fea612efc565b5b612ff6848285612fad565b509392505050565b600082601f83011261301357613012612ef7565b5b8135613023848260208601612fbc565b91505092915050565b60008060008060008060c0878903121561304957613048612bd8565b5b600087013567ffffffffffffffff81111561306757613066612bdd565b5b61307389828a01612ffe565b965050602087013567ffffffffffffffff81111561309457613093612bdd565b5b6130a089828a01612ffe565b95505060406130b189828a01612cbe565b94505060606130c289828a01612cbe565b93505060806130d389828a01612cbe565b92505060a06130e489828a01612cbe565b9150509295509295509295565b60006020828403121561310757613106612bd8565b5b600061311584828501612e25565b91505092915050565b600081519050919050565b600082825260208201905092915050565b6000819050602082019050919050565b600082825260208201905092915050565b600061316682612d00565b613170818561314a565b9350613180818560208601612d1c565b61318981612d46565b840191505092915050565b61319d81612c9d565b82525050565b6131ac81612dd2565b82525050565b600060e08301600083015184820360008601526131cf828261315b565b915050602083015184820360208601526131e9828261315b565b91505060408301516131fe6040860182613194565b5060608301516132116060860182613194565b5060808301516132246080860182613194565b5060a083015161323760a0860182613194565b5060c083015161324a60c08601826131a3565b508091505092915050565b600061326183836131b2565b905092915050565b6000602082019050919050565b60006132818261311e565b61328b8185613129565b93508360208202850161329d8561313a565b8060005b858110156132d957848403895281516132ba8582613255565b94506132c583613269565b925060208a019950506001810190506132a1565b50829750879550505050505092915050565b600060208201905081810360008301526133058184613276565b905092915050565b600060e0820190508181036000830152613327818a612d57565b9050818103602083015261333b8189612d57565b905061334a6040830188612ecd565b6133576060830187612ecd565b6133646080830186612ecd565b61337160a0830185612ecd565b61337e60c0830184612de4565b98975050505050505050565b61339381612c67565b811461339e57600080fd5b50565b6000813590506133b08161338a565b92915050565b600080604083850312156133cd576133cc612bd8565b5b60006133db85828601612e25565b92505060206133ec858286016133a1565b9150509250929050565b600067ffffffffffffffff82111561341157613410612f01565b5b61341a82612d46565b9050602081019050919050565b600061343a613435846133f6565b612f61565b90508281526020810184848401111561345657613455612efc565b5b613461848285612fad565b509392505050565b600082601f83011261347e5761347d612ef7565b5b813561348e848260208601613427565b91505092915050565b600080600080608085870312156134b1576134b0612bd8565b5b60006134bf87828801612e25565b94505060206134d087828801612e25565b93505060406134e187828801612cbe565b925050606085013567ffffffffffffffff81111561350257613501612bdd565b5b61350e87828801613469565b91505092959194509250565b6000806040838503121561353157613530612bd8565b5b600061353f85828601612e25565b925050602061355085828601612e25565b9150509250929050565b6000806040838503121561357157613570612bd8565b5b600061357f85828601612cbe565b925050602061359085828601612cbe565b9150509250929050565b7f4e487b7100000000000000000000000000000000000000000000000000000000600052602260045260246000fd5b600060028204905060018216806135e157607f821691505b6020821081036135f4576135f361359a565b5b50919050565b7f4552433732313a20617070726f76616c20746f2063757272656e74206f776e6560008201527f7200000000000000000000000000000000000000000000000000000000000000602082015250565b6000613656602183612d0b565b9150613661826135fa565b604082019050919050565b6000602082019050818103600083015261368581613649565b9050919050565b7f4552433732313a20617070726f76652063616c6c6572206973206e6f7420746f60008201527f6b656e206f776e6572206f7220617070726f76656420666f7220616c6c000000602082015250565b60006136e8603d83612d0b565b91506136f38261368c565b604082019050919050565b60006020820190508181036000830152613717816136db565b9050919050565b7f4552433732313a2063616c6c6572206973206e6f7420746f6b656e206f776e6560008201527f72206f7220617070726f76656400000000000000000000000000000000000000602082015250565b600061377a602d83612d0b565b91506137858261371e565b604082019050919050565b600060208201905081810360008301526137a98161376d565b9050919050565b7f6c6f636b6564206465706f736974000000000000000000000000000000000000600082015250565b60006137e6600e83612d0b565b91506137f1826137b0565b602082019050919050565b60006020820190508181036000830152613815816137d9565b9050919050565b7f6e6f74206f776e65720000000000000000000000000000000000000000000000600082015250565b6000613852600983612d0b565b915061385d8261381c565b602082019050919050565b6000602082019050818103600083015261388181613845565b9050919050565b7f4465706f73697420697320756e6c6f636b656400000000000000000000000000600082015250565b60006138be601383612d0b565b91506138c982613888565b602082019050919050565b600060208201905081810360008301526138ed816138b1565b9050919050565b60008190508160005260206000209050919050565b60006020601f8301049050919050565b600082821b905092915050565b6000600883026139567fffffffffffffffffffffffffffffffffffffffffffffffffffffffffffffffff82613919565b6139608683613919565b95508019841693508086168417925050509392505050565b6000819050919050565b600061399d61399861399384612c9d565b613978565b612c9d565b9050919050565b6000819050919050565b6139b783613982565b6139cb6139c3826139a4565b848454613926565b825550505050565b600090565b6139e06139d3565b6139eb8184846139ae565b505050565b5b81811015613a0f57613a046000826139d8565b6001810190506139f1565b5050565b601f821115613a5457613a25816138f4565b613a2e84613909565b81016020851015613a3d578190505b613a51613a4985613909565b8301826139f0565b50505b505050565b600082821c905092915050565b6000613a7760001984600802613a59565b1980831691505092915050565b6000613a908383613a66565b9150826002028217905092915050565b613aa982612d00565b67ffffffffffffffff811115613ac257613ac1612f01565b5b613acc82546135c9565b613ad7828285613a13565b600060209050601f831160018114613b0a5760008415613af8578287015190505b613b028582613a84565b865550613b6a565b601f198416613b18866138f4565b60005b82811015613b4057848901518255600182019150602085019450602081019050613b1b565b86831015613b5d5784890151613b59601f891682613a66565b8355505b6001600288020188555050505b505050505050565b6000604082019050613b876000830185612de4565b613b946020830184612ecd565b9392505050565b7f4552433732313a20696e76616c696420746f6b656e2049440000000000000000600082015250565b6000613bd1601883612d0b565b9150613bdc82613b9b565b602082019050919050565b60006020820190508181036000830152613c0081613bc4565b9050919050565b7f4552433732313a2061646472657373207a65726f206973206e6f74206120766160008201527f6c6964206f776e65720000000000000000000000000000000000000000000000602082015250565b6000613c63602983612d0b565b9150613c6e82613c07565b604082019050919050565b60006020820190508181036000830152613c9281613c56565b9050919050565b7f4e487b7100000000000000000000000000000000000000000000000000000000600052601160045260246000fd5b6000613cd382612c9d565b9150613cde83612c9d565b9250828201905080821115613cf657613cf5613c99565b5b92915050565b600081905092915050565b7f7b226e616d65223a202200000000000000000000000000000000000000000000600082015250565b6000613d3d600a83613cfc565b9150613d4882613d07565b600a82019050919050565b6000613d5e82612d00565b613d688185613cfc565b9350613d78818560208601612d1c565b80840191505092915050565b7f222c2022696d616765223a202200000000000000000000000000000000000000600082015250565b6000613dba600d83613cfc565b9150613dc582613d84565b600d82019050919050565b7f222c20226465736372697074696f6e223a202274657374232323222c2261747460008201527f72696275746573223a5b7b2274726169745f74797065223a202253746172742060208201527f44617465222c22646973706c61795f74797065223a202264617465222c20227660408201527f616c7565223a2000000000000000000000000000000000000000000000000000606082015250565b6000613e78606783613cfc565b9150613e8382613dd0565b606782019050919050565b7f7d2c207b2274726169745f74797065223a202245787069726174696f6e20446160008201527f7465222c22646973706c61795f74797065223a202264617465222c202276616c60208201527f7565223a20000000000000000000000000000000000000000000000000000000604082015250565b6000613f10604583613cfc565b9150613f1b82613e8e565b604582019050919050565b7f7d5d7d0000000000000000000000000000000000000000000000000000000000600082015250565b6000613f5c600383613cfc565b9150613f6782613f26565b600382019050919050565b6000613f7d82613d30565b9150613f898287613d53565b9150613f9482613dad565b9150613fa08286613d53565b9150613fab82613e6b565b9150613fb78285613d53565b9150613fc282613f03565b9150613fce8284613d53565b9150613fd982613f4f565b915081905095945050505050565b7f646174613a6170706c69636174696f6e2f6a736f6e3b6261736536342c000000600082015250565b600061401d601d83613cfc565b915061402882613fe7565b601d82019050919050565b600061403e82614010565b915061404a8284613d53565b915081905092915050565b7f7570706572206c696d6974000000000000000000000000000000000000000000600082015250565b600061408b600b83612d0b565b915061409682614055565b602082019050919050565b600060208201905081810360008301526140ba8161407e565b9050919050565b7f4e487b7100000000000000000000000000000000000000000000000000000000600052603260045260246000fd5b7f6574682064697363726570616e63790000000000000000000000000000000000600082015250565b6000614126600f83612d0b565b9150614131826140f0565b602082019050919050565b6000602082019050818103600083015261415581614119565b9050919050565b7f4552433732313a207472616e736665722066726f6d20696e636f72726563742060008201527f6f776e6572000000000000000000000000000000000000000000000000000000602082015250565b60006141b8602583612d0b565b91506141c38261415c565b604082019050919050565b600060208201905081810360008301526141e7816141ab565b9050919050565b7f4552433732313a207472616e7366657220746f20746865207a65726f2061646460008201527f7265737300000000000000000000000000000000000000000000000000000000602082015250565b600061424a602483612d0b565b9150614255826141ee565b604082019050919050565b600060208201905081810360008301526142798161423d565b9050919050565b7f4552433732313a20617070726f766520746f2063616c6c657200000000000000600082015250565b60006142b6601983612d0b565b91506142c182614280565b602082019050919050565b600060208201905081810360008301526142e5816142a9565b9050919050565b7f4552433732313a207472616e7366657220746f206e6f6e20455243373231526560008201527f63656976657220696d706c656d656e7465720000000000000000000000000000602082015250565b6000614348603283612d0b565b9150614353826142ec565b604082019050919050565b600060208201905081810360008301526143778161433b565b9050919050565b7f4e487b7100000000000000000000000000000000000000000000000000000000600052601260045260246000fd5b60006143b882612c9d565b91506143c383612c9d565b9250826143d3576143d261437e565b5b828204905092915050565b60006143e982612c9d565b91506143f483612c9d565b925082820261440281612c9d565b9150828204841483151761441957614418613c99565b5b5092915050565b600081519050919050565b600082825260208201905092915050565b600061444782614420565b614451818561442b565b9350614461818560208601612d1c565b61446a81612d46565b840191505092915050565b600060808201905061448a6000830187612de4565b6144976020830186612de4565b6144a46040830185612ecd565b81810360608301526144b6818461443c565b905095945050505050565b6000815190506144d081612c0e565b92915050565b6000602082840312156144ec576144eb612bd8565b5b60006144fa848285016144c1565b91505092915050565b7f4552433732313a206d696e7420746f20746865207a65726f2061646472657373600082015250565b6000614539602083612d0b565b915061454482614503565b602082019050919050565b600060208201905081810360008301526145688161452c565b9050919050565b7f4552433732313a20746f6b656e20616c7265616479206d696e74656400000000600082015250565b60006145a5601c83612d0b565b91506145b08261456f565b602082019050919050565b600060208201905081810360008301526145d481614598565b905091905056fe4142434445464748494a4b4c4d4e4f505152535455565758595a6162636465666768696a6b6c6d6e6f707172737475767778797a303132333435363738392b2fa26469706673582212201405b68836f6aee3103973314631859e8246340e2c19077eb1690c1ef8408e8a64736f6c63430008120033",
  "linkReferences": {},
  "deployedLinkReferences": {}
}