{
  "_format": "hh-sol-artifact-1",
  "contractName": "IpNftLicense",
  "sourceName": "contracts/IpNftLicense.sol",
  "abi": [
    {
      "inputs": [],
      "stateMutability": "nonpayable",
      "type": "constructor"
    },
    {
      "anonymous": false,
      "inputs": [
        {
          "indexed": true,
          "internalType": "address",
          "name": "owner",
          "type": "address"
        },
        {
          "indexed": true,
          "internalType": "address",
          "name": "approved",
          "type": "address"
        },
        {
          "indexed": true,
          "internalType": "uint256",
          "name": "tokenId",
          "type": "uint256"
        }
      ],
      "name": "Approval",
      "type": "event"
    },
    {
      "anonymous": false,
      "inputs": [
        {
          "indexed": true,
          "internalType": "address",
          "name": "owner",
          "type": "address"
        },
        {
          "indexed": true,
          "internalType": "address",
          "name": "operator",
          "type": "address"
        },
        {
          "indexed": false,
          "internalType": "bool",
          "name": "approved",
          "type": "bool"
        }
      ],
      "name": "ApprovalForAll",
      "type": "event"
    },
    {
      "anonymous": false,
      "inputs": [
        {
          "indexed": true,
          "internalType": "address",
          "name": "from",
          "type": "address"
        },
        {
          "indexed": true,
          "internalType": "address",
          "name": "to",
          "type": "address"
        },
        {
          "indexed": true,
          "internalType": "uint256",
          "name": "tokenId",
          "type": "uint256"
        }
      ],
      "name": "Transfer",
      "type": "event"
    },
    {
      "anonymous": false,
      "inputs": [
        {
          "indexed": false,
          "internalType": "address",
          "name": "_sender",
          "type": "address"
        },
        {
          "indexed": false,
          "internalType": "uint256",
          "name": "_id",
          "type": "uint256"
        }
      ],
      "name": "nftMinted",
      "type": "event"
    },
    {
      "anonymous": false,
      "inputs": [
        {
          "indexed": false,
          "internalType": "address",
          "name": "_sender",
          "type": "address"
        },
        {
          "indexed": false,
          "internalType": "uint256",
          "name": "_id",
          "type": "uint256"
        }
      ],
      "name": "nftRegistered",
      "type": "event"
    },
    {
      "inputs": [],
      "name": "EPNS_COMM_CONTRACT_ADDRESS_FOR_SPECIFIC_BLOCKCHAIN",
      "outputs": [
        {
          "internalType": "address",
          "name": "",
          "type": "address"
        }
      ],
      "stateMutability": "view",
      "type": "function"
    },
    {
      "inputs": [
        {
          "internalType": "address",
          "name": "to",
          "type": "address"
        },
        {
          "internalType": "uint256",
          "name": "tokenId",
          "type": "uint256"
        }
      ],
      "name": "approve",
      "outputs": [],
      "stateMutability": "nonpayable",
      "type": "function"
    },
    {
      "inputs": [
        {
          "internalType": "address",
          "name": "owner",
          "type": "address"
        }
      ],
      "name": "balanceOf",
      "outputs": [
        {
          "internalType": "uint256",
          "name": "",
          "type": "uint256"
        }
      ],
      "stateMutability": "view",
      "type": "function"
    },
    {
      "inputs": [
        {
          "internalType": "uint256",
          "name": "",
          "type": "uint256"
        }
      ],
      "name": "depositAmountMap",
      "outputs": [
        {
          "internalType": "uint256",
          "name": "",
          "type": "uint256"
        }
      ],
      "stateMutability": "view",
      "type": "function"
    },
    {
      "inputs": [
        {
          "internalType": "uint256",
          "name": "_tokenId",
          "type": "uint256"
        }
      ],
      "name": "forfeitDeposit",
      "outputs": [],
      "stateMutability": "nonpayable",
      "type": "function"
    },
    {
      "inputs": [],
      "name": "getAllMintableIps",
      "outputs": [
        {
          "components": [
            {
              "internalType": "string",
              "name": "name",
              "type": "string"
            },
            {
              "internalType": "string",
              "name": "imageURI",
              "type": "string"
            },
            {
              "internalType": "uint256",
              "name": "startDate",
              "type": "uint256"
            },
            {
              "internalType": "uint256",
              "name": "expirationDays",
              "type": "uint256"
            },
            {
              "internalType": "uint256",
              "name": "price",
              "type": "uint256"
            },
            {
              "internalType": "uint256",
              "name": "depositPrice",
              "type": "uint256"
            },
            {
              "internalType": "address",
              "name": "owner",
              "type": "address"
            }
          ],
          "internalType": "struct IpNftLicense.TicketAttributes[]",
          "name": "",
          "type": "tuple[]"
        }
      ],
      "stateMutability": "view",
      "type": "function"
    },
    {
      "inputs": [
        {
          "internalType": "uint256",
          "name": "tokenId",
          "type": "uint256"
        }
      ],
      "name": "getApproved",
      "outputs": [
        {
          "internalType": "address",
          "name": "",
          "type": "address"
        }
      ],
      "stateMutability": "view",
      "type": "function"
    },
    {
      "inputs": [
        {
          "internalType": "uint256",
          "name": "nftId",
          "type": "uint256"
        }
      ],
      "name": "getMintCount",
      "outputs": [
        {
          "internalType": "uint256",
          "name": "",
          "type": "uint256"
        }
      ],
      "stateMutability": "view",
      "type": "function"
    },
    {
      "inputs": [
        {
          "internalType": "address",
          "name": "owner",
          "type": "address"
        },
        {
          "internalType": "address",
          "name": "operator",
          "type": "address"
        }
      ],
      "name": "isApprovedForAll",
      "outputs": [
        {
          "internalType": "bool",
          "name": "",
          "type": "bool"
        }
      ],
      "stateMutability": "view",
      "type": "function"
    },
    {
      "inputs": [
        {
          "internalType": "uint256",
          "name": "",
          "type": "uint256"
        }
      ],
      "name": "isDepositLockedMap",
      "outputs": [
        {
          "internalType": "bool",
          "name": "",
          "type": "bool"
        }
      ],
      "stateMutability": "view",
      "type": "function"
    },
    {
      "inputs": [
        {
          "internalType": "uint256",
          "name": "",
          "type": "uint256"
        }
      ],
      "name": "maxMint",
      "outputs": [
        {
          "internalType": "uint256",
          "name": "",
          "type": "uint256"
        }
      ],
      "stateMutability": "view",
      "type": "function"
    },
    {
      "inputs": [
        {
          "internalType": "uint256",
          "name": "_mintNftId",
          "type": "uint256"
        },
        {
          "internalType": "uint256",
          "name": "startDate",
          "type": "uint256"
        }
      ],
      "name": "mintNft",
      "outputs": [],
      "stateMutability": "payable",
      "type": "function"
    },
    {
      "inputs": [],
      "name": "name",
      "outputs": [
        {
          "internalType": "string",
          "name": "",
          "type": "string"
        }
      ],
      "stateMutability": "view",
      "type": "function"
    },
    {
      "inputs": [
        {
          "internalType": "uint256",
          "name": "",
          "type": "uint256"
        }
      ],
      "name": "nftHolderAttributes",
      "outputs": [
        {
          "internalType": "string",
          "name": "name",
          "type": "string"
        },
        {
          "internalType": "string",
          "name": "imageURI",
          "type": "string"
        },
        {
          "internalType": "uint256",
          "name": "startDate",
          "type": "uint256"
        },
        {
          "internalType": "uint256",
          "name": "expirationDays",
          "type": "uint256"
        },
        {
          "internalType": "uint256",
          "name": "price",
          "type": "uint256"
        },
        {
          "internalType": "uint256",
          "name": "depositPrice",
          "type": "uint256"
        },
        {
          "internalType": "address",
          "name": "owner",
          "type": "address"
        }
      ],
      "stateMutability": "view",
      "type": "function"
    },
    {
      "inputs": [
        {
          "internalType": "uint256",
          "name": "tokenId",
          "type": "uint256"
        }
      ],
      "name": "ownerOf",
      "outputs": [
        {
          "internalType": "address",
          "name": "",
          "type": "address"
        }
      ],
      "stateMutability": "view",
      "type": "function"
    },
    {
      "inputs": [
        {
          "internalType": "string",
          "name": "_name",
          "type": "string"
        },
        {
          "internalType": "string",
          "name": "_imageURI",
          "type": "string"
        },
        {
          "internalType": "uint256",
          "name": "_expirationDays",
          "type": "uint256"
        },
        {
          "internalType": "uint256",
          "name": "_price",
          "type": "uint256"
        },
        {
          "internalType": "uint256",
          "name": "_depositPrice",
          "type": "uint256"
        },
        {
          "internalType": "uint256",
          "name": "_maxMint",
          "type": "uint256"
        }
      ],
      "name": "registerIpLicenseNft",
      "outputs": [],
      "stateMutability": "nonpayable",
      "type": "function"
    },
    {
      "inputs": [
        {
          "internalType": "address",
          "name": "",
          "type": "address"
        }
      ],
      "name": "revenueBalanceMap",
      "outputs": [
        {
          "internalType": "uint256",
          "name": "",
          "type": "uint256"
        }
      ],
      "stateMutability": "view",
      "type": "function"
    },
    {
      "inputs": [
        {
          "internalType": "address",
          "name": "from",
          "type": "address"
        },
        {
          "internalType": "address",
          "name": "to",
          "type": "address"
        },
        {
          "internalType": "uint256",
          "name": "tokenId",
          "type": "uint256"
        }
      ],
      "name": "safeTransferFrom",
      "outputs": [],
      "stateMutability": "nonpayable",
      "type": "function"
    },
    {
      "inputs": [
        {
          "internalType": "address",
          "name": "from",
          "type": "address"
        },
        {
          "internalType": "address",
          "name": "to",
          "type": "address"
        },
        {
          "internalType": "uint256",
          "name": "tokenId",
          "type": "uint256"
        },
        {
          "internalType": "bytes",
          "name": "data",
          "type": "bytes"
        }
      ],
      "name": "safeTransferFrom",
      "outputs": [],
      "stateMutability": "nonpayable",
      "type": "function"
    },
    {
      "inputs": [
        {
          "internalType": "string",
          "name": "message",
          "type": "string"
        }
      ],
      "name": "sendNotification",
      "outputs": [],
      "stateMutability": "nonpayable",
      "type": "function"
    },
    {
      "inputs": [
        {
          "internalType": "address",
          "name": "operator",
          "type": "address"
        },
        {
          "internalType": "bool",
          "name": "approved",
          "type": "bool"
        }
      ],
      "name": "setApprovalForAll",
      "outputs": [],
      "stateMutability": "nonpayable",
      "type": "function"
    },
    {
      "inputs": [
        {
          "internalType": "bytes4",
          "name": "interfaceId",
          "type": "bytes4"
        }
      ],
      "name": "supportsInterface",
      "outputs": [
        {
          "internalType": "bool",
          "name": "",
          "type": "bool"
        }
      ],
      "stateMutability": "view",
      "type": "function"
    },
    {
      "inputs": [],
      "name": "symbol",
      "outputs": [
        {
          "internalType": "string",
          "name": "",
          "type": "string"
        }
      ],
      "stateMutability": "view",
      "type": "function"
    },
    {
      "inputs": [
        {
          "internalType": "uint256",
          "name": "_tokenId",
          "type": "uint256"
        }
      ],
      "name": "tokenURI",
      "outputs": [
        {
          "internalType": "string",
          "name": "",
          "type": "string"
        }
      ],
      "stateMutability": "view",
      "type": "function"
    },
    {
      "inputs": [
        {
          "internalType": "address",
          "name": "from",
          "type": "address"
        },
        {
          "internalType": "address",
          "name": "to",
          "type": "address"
        },
        {
          "internalType": "uint256",
          "name": "tokenId",
          "type": "uint256"
        }
      ],
      "name": "transferFrom",
      "outputs": [],
      "stateMutability": "nonpayable",
      "type": "function"
    },
    {
      "inputs": [
        {
          "internalType": "uint256",
          "name": "_tokenId",
          "type": "uint256"
        }
      ],
      "name": "unLockDeposit",
      "outputs": [],
      "stateMutability": "nonpayable",
      "type": "function"
    },
    {
      "inputs": [
        {
          "internalType": "uint256",
          "name": "_tokenId",
          "type": "uint256"
        }
      ],
      "name": "withdrawDeposit",
      "outputs": [],
      "stateMutability": "nonpayable",
      "type": "function"
    },
    {
      "inputs": [],
      "name": "withdrawRevenue",
      "outputs": [],
      "stateMutability": "nonpayable",
      "type": "function"
    }
  ],
  "bytecode": "0x608060405273b3971bcef2d791bc4027bbfedfb47319a4aaaaaa600760006101000a81548173ffffffffffffffffffffffffffffffffffffffff021916908373ffffffffffffffffffffffffffffffffffffffff1602179055503480156200006657600080fd5b506040518060400160405280600e81526020017f4950204c6963656e7365204e46540000000000000000000000000000000000008152506040518060400160405280600581526020017f49504c49430000000000000000000000000000000000000000000000000000008152508160009081620000e4919062000379565b508060019081620000f6919062000379565b50505062000460565b600081519050919050565b7f4e487b7100000000000000000000000000000000000000000000000000000000600052604160045260246000fd5b7f4e487b7100000000000000000000000000000000000000000000000000000000600052602260045260246000fd5b600060028204905060018216806200018157607f821691505b60208210810362000197576200019662000139565b5b50919050565b60008190508160005260206000209050919050565b60006020601f8301049050919050565b600082821b905092915050565b600060088302620002017fffffffffffffffffffffffffffffffffffffffffffffffffffffffffffffffff82620001c2565b6200020d8683620001c2565b95508019841693508086168417925050509392505050565b6000819050919050565b6000819050919050565b60006200025a620002546200024e8462000225565b6200022f565b62000225565b9050919050565b6000819050919050565b620002768362000239565b6200028e620002858262000261565b848454620001cf565b825550505050565b600090565b620002a562000296565b620002b28184846200026b565b505050565b5b81811015620002da57620002ce6000826200029b565b600181019050620002b8565b5050565b601f8211156200032957620002f3816200019d565b620002fe84620001b2565b810160208510156200030e578190505b620003266200031d85620001b2565b830182620002b7565b50505b505050565b600082821c905092915050565b60006200034e600019846008026200032e565b1980831691505092915050565b60006200036983836200033b565b9150826002028217905092915050565b6200038482620000ff565b67ffffffffffffffff811115620003a0576200039f6200010a565b5b620003ac825462000168565b620003b9828285620002de565b600060209050601f831160018114620003f15760008415620003dc578287015190505b620003e885826200035b565b86555062000458565b601f19841662000401866200019d565b60005b828110156200042b5784890151825560018201915060208501945060208101905062000404565b868310156200044b578489015162000447601f8916826200033b565b8355505b6001600288020188555050505b505050505050565b614d5980620004706000396000f3fe6080604052600436106101b75760003560e01c806360c04e71116100ec578063a22cb4651161008a578063d4196ca211610064578063d4196ca214610644578063db09a3f514610681578063e985e9c5146106be578063f53a261d146106fb576101b7565b8063a22cb465146105b5578063b88d4fde146105de578063c87b56dd14610607576101b7565b806370a08231116100c657806370a08231146104df5780637a4ce7f01461051c57806395d89b411461054757806398da4c9514610572576101b7565b806360c04e711461043c57806362a9d6a6146104655780636352211e146104a2576101b7565b806323b872dd116101595780633d9e67ec116101335780633d9e67ec1461039457806342842e0e146103d15780634f573cb2146103fa578063580d11ce14610411576101b7565b806323b872dd1461031957806333289a46146103425780633adb1cb41461036b576101b7565b806306fdde031161019557806306fdde031461025f578063081812fc1461028a578063095ea7b3146102c75780631a10a412146102f0576101b7565b806301ffc9a7146101bc5780630486bcee146101f957806306ab6fda14610222575b600080fd5b3480156101c857600080fd5b506101e360048036038101906101de9190612f81565b610717565b6040516101f09190612fc9565b60405180910390f35b34801561020557600080fd5b50610220600480360381019061021b919061301a565b6107f9565b005b34801561022e57600080fd5b506102496004803603810190610244919061301a565b61091f565b6040516102569190612fc9565b60405180910390f35b34801561026b57600080fd5b5061027461093f565b60405161028191906130d7565b60405180910390f35b34801561029657600080fd5b506102b160048036038101906102ac919061301a565b6109d1565b6040516102be919061313a565b60405180910390f35b3480156102d357600080fd5b506102ee60048036038101906102e99190613181565b610a17565b005b3480156102fc57600080fd5b50610317600480360381019061031291906132f6565b610b2e565b005b34801561032557600080fd5b50610340600480360381019061033b919061333f565b610bf7565b005b34801561034e57600080fd5b506103696004803603810190610364919061301a565b610c57565b005b34801561037757600080fd5b50610392600480360381019061038d919061301a565b610db0565b005b3480156103a057600080fd5b506103bb60048036038101906103b6919061301a565b610f17565b6040516103c891906133a1565b60405180910390f35b3480156103dd57600080fd5b506103f860048036038101906103f3919061333f565b610f2f565b005b34801561040657600080fd5b5061040f610f4f565b005b34801561041d57600080fd5b50610426611022565b604051610433919061313a565b60405180910390f35b34801561044857600080fd5b50610463600480360381019061045e91906133bc565b611048565b005b34801561047157600080fd5b5061048c6004803603810190610487919061301a565b6111cc565b60405161049991906133a1565b60405180910390f35b3480156104ae57600080fd5b506104c960048036038101906104c4919061301a565b6111e4565b6040516104d6919061313a565b60405180910390f35b3480156104eb57600080fd5b5061050660048036038101906105019190613481565b61126a565b60405161051391906133a1565b60405180910390f35b34801561052857600080fd5b50610531611321565b60405161053e919061367b565b60405180910390f35b34801561055357600080fd5b5061055c611522565b60405161056991906130d7565b60405180910390f35b34801561057e57600080fd5b506105996004803603810190610594919061301a565b6115b4565b6040516105ac979695949392919061369d565b60405180910390f35b3480156105c157600080fd5b506105dc60048036038101906105d79190613746565b611726565b005b3480156105ea57600080fd5b5061060560048036038101906106009190613827565b61173c565b005b34801561061357600080fd5b5061062e6004803603810190610629919061301a565b61179e565b60405161063b91906130d7565b60405180910390f35b34801561065057600080fd5b5061066b60048036038101906106669190613481565b611a00565b60405161067891906133a1565b60405180910390f35b34801561068d57600080fd5b506106a860048036038101906106a3919061301a565b611a18565b6040516106b591906133a1565b60405180910390f35b3480156106ca57600080fd5b506106e560048036038101906106e091906138aa565b611a3c565b6040516106f29190612fc9565b60405180910390f35b610715600480360381019061071091906138ea565b611ad0565b005b60007f80ac58cd000000000000000000000000000000000000000000000000000000007bffffffffffffffffffffffffffffffffffffffffffffffffffffffff1916827bffffffffffffffffffffffffffffffffffffffffffffffffffffffff191614806107e257507f5b5e139f000000000000000000000000000000000000000000000000000000007bffffffffffffffffffffffffffffffffffffffffffffffffffffffff1916827bffffffffffffffffffffffffffffffffffffffffffffffffffffffff1916145b806107f257506107f182611fd7565b5b9050919050565b60006008600083815260200190815260200160002060060160009054906101000a900473ffffffffffffffffffffffffffffffffffffffff1690508073ffffffffffffffffffffffffffffffffffffffff163373ffffffffffffffffffffffffffffffffffffffff16146108a2576040517f08c379a000000000000000000000000000000000000000000000000000000000815260040161089990613976565b60405180910390fd5b600060096000848152602001908152602001600020549050600060096000858152602001908152602001600020819055503373ffffffffffffffffffffffffffffffffffffffff166108fc829081150290604051600060405180830381858888f19350505050158015610919573d6000803e3d6000fd5b50505050565b600a6020528060005260406000206000915054906101000a900460ff1681565b60606000805461094e906139c5565b80601f016020809104026020016040519081016040528092919081815260200182805461097a906139c5565b80156109c75780601f1061099c576101008083540402835291602001916109c7565b820191906000526020600020905b8154815290600101906020018083116109aa57829003601f168201915b5050505050905090565b60006109dc82612041565b6004600083815260200190815260200160002060009054906101000a900473ffffffffffffffffffffffffffffffffffffffff169050919050565b6000610a22826111e4565b90508073ffffffffffffffffffffffffffffffffffffffff168373ffffffffffffffffffffffffffffffffffffffff1603610a92576040517f08c379a0000000000000000000000000000000000000000000000000000000008152600401610a8990613a68565b60405180910390fd5b8073ffffffffffffffffffffffffffffffffffffffff16610ab161208c565b73ffffffffffffffffffffffffffffffffffffffff161480610ae05750610adf81610ada61208c565b611a3c565b5b610b1f576040517f08c379a0000000000000000000000000000000000000000000000000000000008152600401610b1690613afa565b60405180910390fd5b610b298383612094565b505050565b600760009054906101000a900473ffffffffffffffffffffffffffffffffffffffff1673ffffffffffffffffffffffffffffffffffffffff1663ba3d69d773c9d7144d4bb4ff5936d1540faaeefd0201b5fdf8308433604051602001610b95929190613d1a565b6040516020818303038152906040526040518463ffffffff1660e01b8152600401610bc293929190613de4565b600060405180830381600087803b158015610bdc57600080fd5b505af1158015610bf0573d6000803e3d6000fd5b5050505050565b610c08610c0261208c565b8261214d565b610c47576040517f08c379a0000000000000000000000000000000000000000000000000000000008152600401610c3e90613e94565b60405180910390fd5b610c528383836121e2565b505050565b60001515600a600083815260200190815260200160002060009054906101000a900460ff16151514610cbe576040517f08c379a0000000000000000000000000000000000000000000000000000000008152600401610cb590613f00565b60405180910390fd5b610cc7816124db565b73ffffffffffffffffffffffffffffffffffffffff163373ffffffffffffffffffffffffffffffffffffffff1614610d34576040517f08c379a0000000000000000000000000000000000000000000000000000000008152600401610d2b90613976565b60405180910390fd5b600060096000838152602001908152602001600020549050600060096000848152602001908152602001600020819055503373ffffffffffffffffffffffffffffffffffffffff166108fc829081150290604051600060405180830381858888f19350505050158015610dab573d6000803e3d6000fd5b505050565b600a600082815260200190815260200160002060009054906101000a900460ff16610e10576040517f08c379a0000000000000000000000000000000000000000000000000000000008152600401610e0790613f6c565b60405180910390fd5b60006008600083815260200190815260200160002060060160009054906101000a900473ffffffffffffffffffffffffffffffffffffffff1690508073ffffffffffffffffffffffffffffffffffffffff163373ffffffffffffffffffffffffffffffffffffffff1614610eb9576040517f08c379a0000000000000000000000000000000000000000000000000000000008152600401610eb090613976565b60405180910390fd5b6000600a600084815260200190815260200160002060006101000a81548160ff021916908315150217905550600082604051602001610ef89190613ff9565b6040516020818303038152906040529050610f1281610b2e565b505050565b600c6020528060005260406000206000915090505481565b610f4a8383836040518060200160405280600081525061173c565b505050565b6000600b60003373ffffffffffffffffffffffffffffffffffffffff1673ffffffffffffffffffffffffffffffffffffffff1681526020019081526020016000205490506000600b60003373ffffffffffffffffffffffffffffffffffffffff1673ffffffffffffffffffffffffffffffffffffffff168152602001908152602001600020819055503373ffffffffffffffffffffffffffffffffffffffff166108fc829081150290604051600060405180830381858888f1935050505015801561101e573d6000803e3d6000fd5b5050565b600760009054906101000a900473ffffffffffffffffffffffffffffffffffffffff1681565b6000611054600f612518565b9050600e6040518060e00160405280898152602001888152602001600081526020018781526020018681526020018581526020013373ffffffffffffffffffffffffffffffffffffffff16815250908060018154018082558091505060019003906000526020600020906007020160009091909190915060008201518160000190816110e091906141cb565b5060208201518160010190816110f691906141cb565b5060408201518160020155606082015181600301556080820151816004015560a0820151816005015560c08201518160060160006101000a81548173ffffffffffffffffffffffffffffffffffffffff021916908373ffffffffffffffffffffffffffffffffffffffff160217905550505081600c60008381526020019081526020016000208190555061118a600f612526565b7f8cf1e74e6510e3caa6ffcc4bd56494fa9815499f0f802097863e4149fa6981c933826040516111bb92919061429d565b60405180910390a150505050505050565b60096020528060005260406000206000915090505481565b6000806111f0836124db565b9050600073ffffffffffffffffffffffffffffffffffffffff168173ffffffffffffffffffffffffffffffffffffffff1603611261576040517f08c379a000000000000000000000000000000000000000000000000000000000815260040161125890614312565b60405180910390fd5b80915050919050565b60008073ffffffffffffffffffffffffffffffffffffffff168273ffffffffffffffffffffffffffffffffffffffff16036112da576040517f08c379a00000000000000000000000000000000000000000000000000000000081526004016112d1906143a4565b60405180910390fd5b600360008373ffffffffffffffffffffffffffffffffffffffff1673ffffffffffffffffffffffffffffffffffffffff168152602001908152602001600020549050919050565b6060600e805480602002602001604051908101604052809291908181526020016000905b8282101561151957838290600052602060002090600702016040518060e0016040529081600082018054611378906139c5565b80601f01602080910402602001604051908101604052809291908181526020018280546113a4906139c5565b80156113f15780601f106113c6576101008083540402835291602001916113f1565b820191906000526020600020905b8154815290600101906020018083116113d457829003601f168201915b5050505050815260200160018201805461140a906139c5565b80601f0160208091040260200160405190810160405280929190818152602001828054611436906139c5565b80156114835780601f1061145857610100808354040283529160200191611483565b820191906000526020600020905b81548152906001019060200180831161146657829003601f168201915b50505050508152602001600282015481526020016003820154815260200160048201548152602001600582015481526020016006820160009054906101000a900473ffffffffffffffffffffffffffffffffffffffff1673ffffffffffffffffffffffffffffffffffffffff1673ffffffffffffffffffffffffffffffffffffffff168152505081526020019060010190611345565b50505050905090565b606060018054611531906139c5565b80601f016020809104026020016040519081016040528092919081815260200182805461155d906139c5565b80156115aa5780601f1061157f576101008083540402835291602001916115aa565b820191906000526020600020905b81548152906001019060200180831161158d57829003601f168201915b5050505050905090565b60086020528060005260406000206000915090508060000180546115d7906139c5565b80601f0160208091040260200160405190810160405280929190818152602001828054611603906139c5565b80156116505780601f1061162557610100808354040283529160200191611650565b820191906000526020600020905b81548152906001019060200180831161163357829003601f168201915b505050505090806001018054611665906139c5565b80601f0160208091040260200160405190810160405280929190818152602001828054611691906139c5565b80156116de5780601f106116b3576101008083540402835291602001916116de565b820191906000526020600020905b8154815290600101906020018083116116c157829003601f168201915b5050505050908060020154908060030154908060040154908060050154908060060160009054906101000a900473ffffffffffffffffffffffffffffffffffffffff16905087565b61173861173161208c565b838361253c565b5050565b61174d61174761208c565b8361214d565b61178c576040517f08c379a000000000000000000000000000000000000000000000000000000000815260040161178390613e94565b60405180910390fd5b611798848484846126a8565b50505050565b60606000600860008481526020019081526020016000206040518060e00160405290816000820180546117d0906139c5565b80601f01602080910402602001604051908101604052809291908181526020018280546117fc906139c5565b80156118495780601f1061181e57610100808354040283529160200191611849565b820191906000526020600020905b81548152906001019060200180831161182c57829003601f168201915b50505050508152602001600182018054611862906139c5565b80601f016020809104026020016040519081016040528092919081815260200182805461188e906139c5565b80156118db5780601f106118b0576101008083540402835291602001916118db565b820191906000526020600020905b8154815290600101906020018083116118be57829003601f168201915b50505050508152602001600282015481526020016003820154815260200160048201548152602001600582015481526020016006820160009054906101000a900473ffffffffffffffffffffffffffffffffffffffff1673ffffffffffffffffffffffffffffffffffffffff1673ffffffffffffffffffffffffffffffffffffffff1681525050905060006119738260400151612704565b905060006119938360600151846040015161198e91906143f3565b612704565b905060006119cd8460000151856020015185856040516020016119b99493929190614661565b6040516020818303038152906040526127d2565b90506000816040516020016119e29190614722565b60405160208183030381529060405290508095505050505050919050565b600b6020528060005260406000206000915090505481565b6000611a35600d6000848152602001908152602001600020612518565b9050919050565b6000600560008473ffffffffffffffffffffffffffffffffffffffff1673ffffffffffffffffffffffffffffffffffffffff16815260200190815260200160002060008373ffffffffffffffffffffffffffffffffffffffff1673ffffffffffffffffffffffffffffffffffffffff16815260200190815260200160002060009054906101000a900460ff16905092915050565b600c600083815260200190815260200160002054611aff600d6000858152602001908152602001600020612518565b10611b3f576040517f08c379a0000000000000000000000000000000000000000000000000000000008152600401611b3690614790565b60405180910390fd5b6000600e8381548110611b5557611b546147b0565b5b90600052602060002090600702016040518060e0016040529081600082018054611b7e906139c5565b80601f0160208091040260200160405190810160405280929190818152602001828054611baa906139c5565b8015611bf75780601f10611bcc57610100808354040283529160200191611bf7565b820191906000526020600020905b815481529060010190602001808311611bda57829003601f168201915b50505050508152602001600182018054611c10906139c5565b80601f0160208091040260200160405190810160405280929190818152602001828054611c3c906139c5565b8015611c895780601f10611c5e57610100808354040283529160200191611c89565b820191906000526020600020905b815481529060010190602001808311611c6c57829003601f168201915b50505050508152602001600282015481526020016003820154815260200160048201548152602001600582015481526020016006820160009054906101000a900473ffffffffffffffffffffffffffffffffffffffff1673ffffffffffffffffffffffffffffffffffffffff1673ffffffffffffffffffffffffffffffffffffffff1681525050905060008160a001518260800151611d2891906143f3565b9050803414611d6c576040517f08c379a0000000000000000000000000000000000000000000000000000000008152600401611d639061482b565b60405180910390fd5b6000611d786006612518565b90506001600a600083815260200190815260200160002060006101000a81548160ff0219169083151502179055508260a0015160096000838152602001908152602001600020819055508260800151600b60008560c0015173ffffffffffffffffffffffffffffffffffffffff1673ffffffffffffffffffffffffffffffffffffffff1681526020019081526020016000206000828254611e1991906143f3565b92505081905550611e2a3382612935565b6040518060e00160405280846000015181526020018460200151815260200185815260200184606001518152602001846080015181526020018460a0015181526020018460c0015173ffffffffffffffffffffffffffffffffffffffff16815250600860008381526020019081526020016000206000820151816000019081611eb391906141cb565b506020820151816001019081611ec991906141cb565b5060408201518160020155606082015181600301556080820151816004015560a0820151816005015560c08201518160060160006101000a81548173ffffffffffffffffffffffffffffffffffffffff021916908373ffffffffffffffffffffffffffffffffffffffff160217905550905050611f57600d6000878152602001908152602001600020612526565b611f616006612526565b6000611f6c86612704565b604051602001611f7c9190614897565b6040516020818303038152906040529050611f9681610b2e565b7fbbedd439cfe8aa51324de58375e6ffccc4ac766d72b9aaeb8a0e4960923ea4163383604051611fc792919061429d565b60405180910390a1505050505050565b60007f01ffc9a7000000000000000000000000000000000000000000000000000000007bffffffffffffffffffffffffffffffffffffffffffffffffffffffff1916827bffffffffffffffffffffffffffffffffffffffffffffffffffffffff1916149050919050565b61204a81612953565b612089576040517f08c379a000000000000000000000000000000000000000000000000000000000815260040161208090614312565b60405180910390fd5b50565b600033905090565b816004600083815260200190815260200160002060006101000a81548173ffffffffffffffffffffffffffffffffffffffff021916908373ffffffffffffffffffffffffffffffffffffffff160217905550808273ffffffffffffffffffffffffffffffffffffffff16612107836111e4565b73ffffffffffffffffffffffffffffffffffffffff167f8c5be1e5ebec7d5bd14f71427d1e84f3dd0314c0f7b2291e5b200ac8c7c3b92560405160405180910390a45050565b600080612159836111e4565b90508073ffffffffffffffffffffffffffffffffffffffff168473ffffffffffffffffffffffffffffffffffffffff16148061219b575061219a8185611a3c565b5b806121d957508373ffffffffffffffffffffffffffffffffffffffff166121c1846109d1565b73ffffffffffffffffffffffffffffffffffffffff16145b91505092915050565b8273ffffffffffffffffffffffffffffffffffffffff16612202826111e4565b73ffffffffffffffffffffffffffffffffffffffff1614612258576040517f08c379a000000000000000000000000000000000000000000000000000000000815260040161224f9061492b565b60405180910390fd5b600073ffffffffffffffffffffffffffffffffffffffff168273ffffffffffffffffffffffffffffffffffffffff16036122c7576040517f08c379a00000000000000000000000000000000000000000000000000000000081526004016122be906149bd565b60405180910390fd5b6122d48383836001612994565b8273ffffffffffffffffffffffffffffffffffffffff166122f4826111e4565b73ffffffffffffffffffffffffffffffffffffffff161461234a576040517f08c379a00000000000000000000000000000000000000000000000000000000081526004016123419061492b565b60405180910390fd5b6004600082815260200190815260200160002060006101000a81549073ffffffffffffffffffffffffffffffffffffffff02191690556001600360008573ffffffffffffffffffffffffffffffffffffffff1673ffffffffffffffffffffffffffffffffffffffff168152602001908152602001600020600082825403925050819055506001600360008473ffffffffffffffffffffffffffffffffffffffff1673ffffffffffffffffffffffffffffffffffffffff16815260200190815260200160002060008282540192505081905550816002600083815260200190815260200160002060006101000a81548173ffffffffffffffffffffffffffffffffffffffff021916908373ffffffffffffffffffffffffffffffffffffffff160217905550808273ffffffffffffffffffffffffffffffffffffffff168473ffffffffffffffffffffffffffffffffffffffff167fddf252ad1be2c89b69c2b068fc378daa952ba7f163c4a11628f55a4df523b3ef60405160405180910390a46124d6838383600161299a565b505050565b60006002600083815260200190815260200160002060009054906101000a900473ffffffffffffffffffffffffffffffffffffffff169050919050565b600081600001549050919050565b6001816000016000828254019250508190555050565b8173ffffffffffffffffffffffffffffffffffffffff168373ffffffffffffffffffffffffffffffffffffffff16036125aa576040517f08c379a00000000000000000000000000000000000000000000000000000000081526004016125a190614a29565b60405180910390fd5b80600560008573ffffffffffffffffffffffffffffffffffffffff1673ffffffffffffffffffffffffffffffffffffffff16815260200190815260200160002060008473ffffffffffffffffffffffffffffffffffffffff1673ffffffffffffffffffffffffffffffffffffffff16815260200190815260200160002060006101000a81548160ff0219169083151502179055508173ffffffffffffffffffffffffffffffffffffffff168373ffffffffffffffffffffffffffffffffffffffff167f17307eab39ab6107e8899845ad3d59bd9653f200f220920489ca2b5937696c318360405161269b9190612fc9565b60405180910390a3505050565b6126b38484846121e2565b6126bf848484846129a0565b6126fe576040517f08c379a00000000000000000000000000000000000000000000000000000000081526004016126f590614abb565b60405180910390fd5b50505050565b60606000600161271384612b27565b01905060008167ffffffffffffffff811115612732576127316131cb565b5b6040519080825280601f01601f1916602001820160405280156127645781602001600182028036833780820191505090505b509050600082602001820190505b6001156127c7578080600190039150507f3031323334353637383961626364656600000000000000000000000000000000600a86061a8153600a85816127bb576127ba614adb565b5b04945060008503612772575b819350505050919050565b606060008251036127f457604051806020016040528060008152509050612930565b6000604051806060016040528060408152602001614ce4604091399050600060036002855161282391906143f3565b61282d9190614b0a565b60046128399190614b3b565b67ffffffffffffffff811115612852576128516131cb565b5b6040519080825280601f01601f1916602001820160405280156128845781602001600182028036833780820191505090505b509050600182016020820185865187015b808210156128f0576003820191508151603f8160121c168501518453600184019350603f81600c1c168501518453600184019350603f8160061c168501518453600184019350603f8116850151845360018401935050612895565b505060038651066001811461290c576002811461291f57612927565b603d6001830353603d6002830353612927565b603d60018303535b50505080925050505b919050565b61294f828260405180602001604052806000815250612c7a565b5050565b60008073ffffffffffffffffffffffffffffffffffffffff16612975836124db565b73ffffffffffffffffffffffffffffffffffffffff1614159050919050565b50505050565b50505050565b60006129c18473ffffffffffffffffffffffffffffffffffffffff16612cd5565b15612b1a578373ffffffffffffffffffffffffffffffffffffffff1663150b7a026129ea61208c565b8786866040518563ffffffff1660e01b8152600401612a0c9493929190614b7d565b6020604051808303816000875af1925050508015612a4857506040513d601f19601f82011682018060405250810190612a459190614bde565b60015b612aca573d8060008114612a78576040519150601f19603f3d011682016040523d82523d6000602084013e612a7d565b606091505b506000815103612ac2576040517f08c379a0000000000000000000000000000000000000000000000000000000008152600401612ab990614abb565b60405180910390fd5b805181602001fd5b63150b7a0260e01b7bffffffffffffffffffffffffffffffffffffffffffffffffffffffff1916817bffffffffffffffffffffffffffffffffffffffffffffffffffffffff191614915050612b1f565b600190505b949350505050565b600080600090507a184f03e93ff9f4daa797ed6e38ed64bf6a1f0100000000000000008310612b85577a184f03e93ff9f4daa797ed6e38ed64bf6a1f0100000000000000008381612b7b57612b7a614adb565b5b0492506040810190505b6d04ee2d6d415b85acef81000000008310612bc2576d04ee2d6d415b85acef81000000008381612bb857612bb7614adb565b5b0492506020810190505b662386f26fc100008310612bf157662386f26fc100008381612be757612be6614adb565b5b0492506010810190505b6305f5e1008310612c1a576305f5e1008381612c1057612c0f614adb565b5b0492506008810190505b6127108310612c3f576127108381612c3557612c34614adb565b5b0492506004810190505b60648310612c625760648381612c5857612c57614adb565b5b0492506002810190505b600a8310612c71576001810190505b80915050919050565b612c848383612cf8565b612c9160008484846129a0565b612cd0576040517f08c379a0000000000000000000000000000000000000000000000000000000008152600401612cc790614abb565b60405180910390fd5b505050565b6000808273ffffffffffffffffffffffffffffffffffffffff163b119050919050565b600073ffffffffffffffffffffffffffffffffffffffff168273ffffffffffffffffffffffffffffffffffffffff1603612d67576040517f08c379a0000000000000000000000000000000000000000000000000000000008152600401612d5e90614c57565b60405180910390fd5b612d7081612953565b15612db0576040517f08c379a0000000000000000000000000000000000000000000000000000000008152600401612da790614cc3565b60405180910390fd5b612dbe600083836001612994565b612dc781612953565b15612e07576040517f08c379a0000000000000000000000000000000000000000000000000000000008152600401612dfe90614cc3565b60405180910390fd5b6001600360008473ffffffffffffffffffffffffffffffffffffffff1673ffffffffffffffffffffffffffffffffffffffff16815260200190815260200160002060008282540192505081905550816002600083815260200190815260200160002060006101000a81548173ffffffffffffffffffffffffffffffffffffffff021916908373ffffffffffffffffffffffffffffffffffffffff160217905550808273ffffffffffffffffffffffffffffffffffffffff16600073ffffffffffffffffffffffffffffffffffffffff167fddf252ad1be2c89b69c2b068fc378daa952ba7f163c4a11628f55a4df523b3ef60405160405180910390a4612f1160008383600161299a565b5050565b6000604051905090565b600080fd5b600080fd5b60007fffffffff0000000000000000000000000000000000000000000000000000000082169050919050565b612f5e81612f29565b8114612f6957600080fd5b50565b600081359050612f7b81612f55565b92915050565b600060208284031215612f9757612f96612f1f565b5b6000612fa584828501612f6c565b91505092915050565b60008115159050919050565b612fc381612fae565b82525050565b6000602082019050612fde6000830184612fba565b92915050565b6000819050919050565b612ff781612fe4565b811461300257600080fd5b50565b60008135905061301481612fee565b92915050565b6000602082840312156130305761302f612f1f565b5b600061303e84828501613005565b91505092915050565b600081519050919050565b600082825260208201905092915050565b60005b83811015613081578082015181840152602081019050613066565b60008484015250505050565b6000601f19601f8301169050919050565b60006130a982613047565b6130b38185613052565b93506130c3818560208601613063565b6130cc8161308d565b840191505092915050565b600060208201905081810360008301526130f1818461309e565b905092915050565b600073ffffffffffffffffffffffffffffffffffffffff82169050919050565b6000613124826130f9565b9050919050565b61313481613119565b82525050565b600060208201905061314f600083018461312b565b92915050565b61315e81613119565b811461316957600080fd5b50565b60008135905061317b81613155565b92915050565b6000806040838503121561319857613197612f1f565b5b60006131a68582860161316c565b92505060206131b785828601613005565b9150509250929050565b600080fd5b600080fd5b7f4e487b7100000000000000000000000000000000000000000000000000000000600052604160045260246000fd5b6132038261308d565b810181811067ffffffffffffffff82111715613222576132216131cb565b5b80604052505050565b6000613235612f15565b905061324182826131fa565b919050565b600067ffffffffffffffff821115613261576132606131cb565b5b61326a8261308d565b9050602081019050919050565b82818337600083830152505050565b600061329961329484613246565b61322b565b9050828152602081018484840111156132b5576132b46131c6565b5b6132c0848285613277565b509392505050565b600082601f8301126132dd576132dc6131c1565b5b81356132ed848260208601613286565b91505092915050565b60006020828403121561330c5761330b612f1f565b5b600082013567ffffffffffffffff81111561332a57613329612f24565b5b613336848285016132c8565b91505092915050565b60008060006060848603121561335857613357612f1f565b5b60006133668682870161316c565b93505060206133778682870161316c565b925050604061338886828701613005565b9150509250925092565b61339b81612fe4565b82525050565b60006020820190506133b66000830184613392565b92915050565b60008060008060008060c087890312156133d9576133d8612f1f565b5b600087013567ffffffffffffffff8111156133f7576133f6612f24565b5b61340389828a016132c8565b965050602087013567ffffffffffffffff81111561342457613423612f24565b5b61343089828a016132c8565b955050604061344189828a01613005565b945050606061345289828a01613005565b935050608061346389828a01613005565b92505060a061347489828a01613005565b9150509295509295509295565b60006020828403121561349757613496612f1f565b5b60006134a58482850161316c565b91505092915050565b600081519050919050565b600082825260208201905092915050565b6000819050602082019050919050565b600082825260208201905092915050565b60006134f682613047565b61350081856134da565b9350613510818560208601613063565b6135198161308d565b840191505092915050565b61352d81612fe4565b82525050565b61353c81613119565b82525050565b600060e083016000830151848203600086015261355f82826134eb565b9150506020830151848203602086015261357982826134eb565b915050604083015161358e6040860182613524565b5060608301516135a16060860182613524565b5060808301516135b46080860182613524565b5060a08301516135c760a0860182613524565b5060c08301516135da60c0860182613533565b508091505092915050565b60006135f18383613542565b905092915050565b6000602082019050919050565b6000613611826134ae565b61361b81856134b9565b93508360208202850161362d856134ca565b8060005b85811015613669578484038952815161364a85826135e5565b9450613655836135f9565b925060208a01995050600181019050613631565b50829750879550505050505092915050565b600060208201905081810360008301526136958184613606565b905092915050565b600060e08201905081810360008301526136b7818a61309e565b905081810360208301526136cb818961309e565b90506136da6040830188613392565b6136e76060830187613392565b6136f46080830186613392565b61370160a0830185613392565b61370e60c083018461312b565b98975050505050505050565b61372381612fae565b811461372e57600080fd5b50565b6000813590506137408161371a565b92915050565b6000806040838503121561375d5761375c612f1f565b5b600061376b8582860161316c565b925050602061377c85828601613731565b9150509250929050565b600067ffffffffffffffff8211156137a1576137a06131cb565b5b6137aa8261308d565b9050602081019050919050565b60006137ca6137c584613786565b61322b565b9050828152602081018484840111156137e6576137e56131c6565b5b6137f1848285613277565b509392505050565b600082601f83011261380e5761380d6131c1565b5b813561381e8482602086016137b7565b91505092915050565b6000806000806080858703121561384157613840612f1f565b5b600061384f8782880161316c565b94505060206138608782880161316c565b935050604061387187828801613005565b925050606085013567ffffffffffffffff81111561389257613891612f24565b5b61389e878288016137f9565b91505092959194509250565b600080604083850312156138c1576138c0612f1f565b5b60006138cf8582860161316c565b92505060206138e08582860161316c565b9150509250929050565b6000806040838503121561390157613900612f1f565b5b600061390f85828601613005565b925050602061392085828601613005565b9150509250929050565b7f6e6f74206f776e65720000000000000000000000000000000000000000000000600082015250565b6000613960600983613052565b915061396b8261392a565b602082019050919050565b6000602082019050818103600083015261398f81613953565b9050919050565b7f4e487b7100000000000000000000000000000000000000000000000000000000600052602260045260246000fd5b600060028204905060018216806139dd57607f821691505b6020821081036139f0576139ef613996565b5b50919050565b7f4552433732313a20617070726f76616c20746f2063757272656e74206f776e6560008201527f7200000000000000000000000000000000000000000000000000000000000000602082015250565b6000613a52602183613052565b9150613a5d826139f6565b604082019050919050565b60006020820190508181036000830152613a8181613a45565b9050919050565b7f4552433732313a20617070726f76652063616c6c6572206973206e6f7420746f60008201527f6b656e206f776e6572206f7220617070726f76656420666f7220616c6c000000602082015250565b6000613ae4603d83613052565b9150613aef82613a88565b604082019050919050565b60006020820190508181036000830152613b1381613ad7565b9050919050565b600081905092915050565b7f3000000000000000000000000000000000000000000000000000000000000000600082015250565b6000613b5b600183613b1a565b9150613b6682613b25565b600182019050919050565b7f2b00000000000000000000000000000000000000000000000000000000000000600082015250565b6000613ba7600183613b1a565b9150613bb282613b71565b600182019050919050565b7f3100000000000000000000000000000000000000000000000000000000000000600082015250565b6000613bf3600183613b1a565b9150613bfe82613bbd565b600182019050919050565b7f5469746c65000000000000000000000000000000000000000000000000000000600082015250565b6000613c3f600583613b1a565b9150613c4a82613c09565b600582019050919050565b6000613c6082613047565b613c6a8185613b1a565b9350613c7a818560208601613063565b80840191505092915050565b7f3a20000000000000000000000000000000000000000000000000000000000000600082015250565b6000613cbc600283613b1a565b9150613cc782613c86565b600282019050919050565b60008160601b9050919050565b6000613cea82613cd2565b9050919050565b6000613cfc82613cdf565b9050919050565b613d14613d0f82613119565b613cf1565b82525050565b6000613d2582613b4e565b9150613d3082613b9a565b9150613d3b82613be6565b9150613d4682613b9a565b9150613d5182613c32565b9150613d5c82613b9a565b9150613d688285613c55565b9150613d7382613caf565b9150613d7f8284613d03565b6014820191508190509392505050565b600081519050919050565b600082825260208201905092915050565b6000613db682613d8f565b613dc08185613d9a565b9350613dd0818560208601613063565b613dd98161308d565b840191505092915050565b6000606082019050613df9600083018661312b565b613e06602083018561312b565b8181036040830152613e188184613dab565b9050949350505050565b7f4552433732313a2063616c6c6572206973206e6f7420746f6b656e206f776e6560008201527f72206f7220617070726f76656400000000000000000000000000000000000000602082015250565b6000613e7e602d83613052565b9150613e8982613e22565b604082019050919050565b60006020820190508181036000830152613ead81613e71565b9050919050565b7f6c6f636b6564206465706f736974000000000000000000000000000000000000600082015250565b6000613eea600e83613052565b9150613ef582613eb4565b602082019050919050565b60006020820190508181036000830152613f1981613edd565b9050919050565b7f4465706f73697420697320756e6c6f636b656400000000000000000000000000600082015250565b6000613f56601383613052565b9150613f6182613f20565b602082019050919050565b60006020820190508181036000830152613f8581613f49565b9050919050565b7f756e4c6f636b65644465706f73697420746f6b656e4964230000000000000000600082015250565b6000613fc2601883613b1a565b9150613fcd82613f8c565b601882019050919050565b6000819050919050565b613ff3613fee82612fe4565b613fd8565b82525050565b600061400482613fb5565b91506140108284613fe2565b60208201915081905092915050565b60008190508160005260206000209050919050565b60006020601f8301049050919050565b600082821b905092915050565b6000600883026140817fffffffffffffffffffffffffffffffffffffffffffffffffffffffffffffffff82614044565b61408b8683614044565b95508019841693508086168417925050509392505050565b6000819050919050565b60006140c86140c36140be84612fe4565b6140a3565b612fe4565b9050919050565b6000819050919050565b6140e2836140ad565b6140f66140ee826140cf565b848454614051565b825550505050565b600090565b61410b6140fe565b6141168184846140d9565b505050565b5b8181101561413a5761412f600082614103565b60018101905061411c565b5050565b601f82111561417f576141508161401f565b61415984614034565b81016020851015614168578190505b61417c61417485614034565b83018261411b565b50505b505050565b600082821c905092915050565b60006141a260001984600802614184565b1980831691505092915050565b60006141bb8383614191565b9150826002028217905092915050565b6141d482613047565b67ffffffffffffffff8111156141ed576141ec6131cb565b5b6141f782546139c5565b61420282828561413e565b600060209050601f8311600181146142355760008415614223578287015190505b61422d85826141af565b865550614295565b601f1984166142438661401f565b60005b8281101561426b57848901518255600182019150602085019450602081019050614246565b868310156142885784890151614284601f891682614191565b8355505b6001600288020188555050505b505050505050565b60006040820190506142b2600083018561312b565b6142bf6020830184613392565b9392505050565b7f4552433732313a20696e76616c696420746f6b656e2049440000000000000000600082015250565b60006142fc601883613052565b9150614307826142c6565b602082019050919050565b6000602082019050818103600083015261432b816142ef565b9050919050565b7f4552433732313a2061646472657373207a65726f206973206e6f74206120766160008201527f6c6964206f776e65720000000000000000000000000000000000000000000000602082015250565b600061438e602983613052565b915061439982614332565b604082019050919050565b600060208201905081810360008301526143bd81614381565b9050919050565b7f4e487b7100000000000000000000000000000000000000000000000000000000600052601160045260246000fd5b60006143fe82612fe4565b915061440983612fe4565b9250828201905080821115614421576144206143c4565b5b92915050565b7f7b226e616d65223a202200000000000000000000000000000000000000000000600082015250565b600061445d600a83613b1a565b915061446882614427565b600a82019050919050565b7f222c2022696d616765223a202200000000000000000000000000000000000000600082015250565b60006144a9600d83613b1a565b91506144b482614473565b600d82019050919050565b7f222c20226465736372697074696f6e223a202274657374232323222c2261747460008201527f72696275746573223a5b7b2274726169745f74797065223a202253746172742060208201527f44617465222c22646973706c61795f74797065223a202264617465222c20227660408201527f616c7565223a2000000000000000000000000000000000000000000000000000606082015250565b6000614567606783613b1a565b9150614572826144bf565b606782019050919050565b7f7d2c207b2274726169745f74797065223a202245787069726174696f6e20446160008201527f7465222c22646973706c61795f74797065223a202264617465222c202276616c60208201527f7565223a20000000000000000000000000000000000000000000000000000000604082015250565b60006145ff604583613b1a565b915061460a8261457d565b604582019050919050565b7f7d5d7d0000000000000000000000000000000000000000000000000000000000600082015250565b600061464b600383613b1a565b915061465682614615565b600382019050919050565b600061466c82614450565b91506146788287613c55565b91506146838261449c565b915061468f8286613c55565b915061469a8261455a565b91506146a68285613c55565b91506146b1826145f2565b91506146bd8284613c55565b91506146c88261463e565b915081905095945050505050565b7f646174613a6170706c69636174696f6e2f6a736f6e3b6261736536342c000000600082015250565b600061470c601d83613b1a565b9150614717826146d6565b601d82019050919050565b600061472d826146ff565b91506147398284613c55565b915081905092915050565b7f7570706572206c696d6974000000000000000000000000000000000000000000600082015250565b600061477a600b83613052565b915061478582614744565b602082019050919050565b600060208201905081810360008301526147a98161476d565b9050919050565b7f4e487b7100000000000000000000000000000000000000000000000000000000600052603260045260246000fd5b7f6574682064697363726570616e63790000000000000000000000000000000000600082015250565b6000614815600f83613052565b9150614820826147df565b602082019050919050565b6000602082019050818103600083015261484481614808565b9050919050565b7f6d696e7465644e4654206d696e7461626c6549642d0000000000000000000000600082015250565b6000614881601583613b1a565b915061488c8261484b565b601582019050919050565b60006148a282614874565b91506148ae8284613c55565b915081905092915050565b7f4552433732313a207472616e736665722066726f6d20696e636f72726563742060008201527f6f776e6572000000000000000000000000000000000000000000000000000000602082015250565b6000614915602583613052565b9150614920826148b9565b604082019050919050565b6000602082019050818103600083015261494481614908565b9050919050565b7f4552433732313a207472616e7366657220746f20746865207a65726f2061646460008201527f7265737300000000000000000000000000000000000000000000000000000000602082015250565b60006149a7602483613052565b91506149b28261494b565b604082019050919050565b600060208201905081810360008301526149d68161499a565b9050919050565b7f4552433732313a20617070726f766520746f2063616c6c657200000000000000600082015250565b6000614a13601983613052565b9150614a1e826149dd565b602082019050919050565b60006020820190508181036000830152614a4281614a06565b9050919050565b7f4552433732313a207472616e7366657220746f206e6f6e20455243373231526560008201527f63656976657220696d706c656d656e7465720000000000000000000000000000602082015250565b6000614aa5603283613052565b9150614ab082614a49565b604082019050919050565b60006020820190508181036000830152614ad481614a98565b9050919050565b7f4e487b7100000000000000000000000000000000000000000000000000000000600052601260045260246000fd5b6000614b1582612fe4565b9150614b2083612fe4565b925082614b3057614b2f614adb565b5b828204905092915050565b6000614b4682612fe4565b9150614b5183612fe4565b9250828202614b5f81612fe4565b91508282048414831517614b7657614b756143c4565b5b5092915050565b6000608082019050614b92600083018761312b565b614b9f602083018661312b565b614bac6040830185613392565b8181036060830152614bbe8184613dab565b905095945050505050565b600081519050614bd881612f55565b92915050565b600060208284031215614bf457614bf3612f1f565b5b6000614c0284828501614bc9565b91505092915050565b7f4552433732313a206d696e7420746f20746865207a65726f2061646472657373600082015250565b6000614c41602083613052565b9150614c4c82614c0b565b602082019050919050565b60006020820190508181036000830152614c7081614c34565b9050919050565b7f4552433732313a20746f6b656e20616c7265616479206d696e74656400000000600082015250565b6000614cad601c83613052565b9150614cb882614c77565b602082019050919050565b60006020820190508181036000830152614cdc81614ca0565b905091905056fe4142434445464748494a4b4c4d4e4f505152535455565758595a6162636465666768696a6b6c6d6e6f707172737475767778797a303132333435363738392b2fa2646970667358221220feaca6f213d6c37b33854f183ae42319c6224acc9b29ec688cabe6602fa4928664736f6c63430008120033",
  "linkReferences": {},
  "deployedLinkReferences": {}
}